:400000000080002011000000AD000000AD00000080B500AF47F2BC63C4F2000344F2FA62C4F2000212681A6000F044F810B5054C237833B9044810B10448AFF3008001211C
:40004000217010BD2081FF1F00000000400F000008B5064B1BB106480649AFF300800648016811B1054A02B1904708BD00000000400F00002481FF1F0881FF1F00000000AB
:4000800080B500AF00F0A4FB00F0B6FD40F64470C0F2000000F0B2FB4FF0FA0000F08CFE4FF0FF0000F076FEFEE700BF80B400AFFEE700BF80B586B000AF40F20103C0F26F
:4000C00000037B6141F22C03C0F200033B6140F20103C0F200037B6141F22C03C0F200033B613BE03B691B68FB603B695B68BB603B699B683B604FF000037B600FE0FB6824
:400100001A68BB681A60BB6803F10403BB60FB6803F10403FB607B6803F104037B607A683B689A42EBD13B69DB683B604FF000037B600BE0BB684FF000021A60BB6803F159
:400140000403BB607B6803F104037B607A683B689A42EFD13B6903F110033B617B69002B0CBF00230123DBB27A6902F1FF327A61002BB7D100F0ACFEFFF782FFFEE700BF44
:4001800080B582B000AF4EF60C53CEF200034FF48062C0F2FA521A604EF61453CEF200034EF61452CEF20002126842F400721A604FF000037B6019E07B68032B07D840F278
:4001C0000003C0F200037A6853F8223003E040F2AD03C0F2000348F20002C1F6FF72796842F821307B6803F101037B607B682F2BE2D947F2BC63C4F200031B78DAB248F266
:400200000413C1F6FF731A704EF60853CEF2000348F20002C1F6FF721A6000F0BFF948F20013C1F6FF734FF000021A6007F10807BD4680BD80B582B000AF7860396078682D
:400240004FF000013A6800F072FE07F10807BD4680BD00BF80B584B000AFF860B9607A60F868B9687A6800F059FE07F11007BD4680BD00BF80B584B000AFF860B9607A60B8
:40028000F868B9687A6800F049FE07F11007BD4680BD00BF80B483B000AF0346FB71FEE780B487B000AF786039604FF000033B614FF000037B612CE07B694FEA83037A68CE
:4002C000D3181B68BB60BB68FB73BB6823F0FF03BB6017E03B694FEA43033A68D3181B781A46BB68D3183A694FEA420239688A1852781A703B6903F101033B61FB7B03F190
:40030000FF33FB73FB7B002BE4D17B6903F101037B617B690B2BCFD907F11C07BD4680BC704700BF80B582B000AF4FF48143C4F200034FF003021A8044F28203C4F2000355
:400340004FF01B021A704FF48240C4F2000041F20401C0F200014FF00402FFF78BFF4FF48643C4F200034FF002021A704FF040234FF008021A704FF48443C4F200034FF023
:4003800003021A7044F2A163C4F200034FF48472C4F600121278D2B21A7044F22223C4F200034FF008021A8044F22023C4F2000341F251221A804FF00003FB704FF019038D
:4003C0007B6019E0FB784FEA4303DAB244F22523C4F200031B78DBB203F00103DBB21343DBB203F00303FB704FF4F07000F008FD7B6803F1FF337B607B68002B02D0FB78BA
:40040000032BDFD17B68002B03D14FF00300FFF741FF44F20403C4F200034FF480721A8044F20403C4F200034FF007021A7044F20603C4F200034FF000021A7044F20803F3
:40044000C4F200034FF048021A7044F20403C4F200034FF000021A7044F20103C4F200034FF002021A7044F20B03C4F200034FF004021A7044F2A233C4F2000344F2A23295
:40048000C4F200021278D2B242F00102D2B21A7044F2A133C4F2000344F2A132C4F200021278D2B242F00102D2B21A7044F2A033C4F2000344F2A032C4F200021278D2B2CE
:4004C00062F07F02D2B21A7007F10807BD4680BD80B483B000AF40F2CF13C4F600131B78FB7144F2F863C4F200031B78BB7144F2F963C4F200031B787B7145F66E03C4F2A9
:400500000003FA7902F00702D2B21A7045F66F03C4F20003FA794FEA1212D2B21A7044F2F863C4F20003BA7942F00302D2B21A7044F2F963C4F200037A7942F00302D2B23D
:400540001A7045F60113C4F200034FF040021A7045F60313C4F200034FF040021A7045F62333C4F200034FF020021A7044F2F963C4F200037A791A7044F2F863C4F2000382
:40058000BA791A7045F67603C4F200034FF044021A7007F10C07BD4680BC704780B582B000AF72B644F2E863C4F2000344F2E862C4F200021278D2B242F00402D2B21A70FD
:4005C0004FF00003FB7119E0FA7913464FEA43039B184FEA430340F65072C0F200029B183B603B681A683B689B889BB210461946FFF720FEFB7903F10103FB71FB79092B5C
:40060000E2D940F68C70C0F2000040F6BC71C0F20001FFF745FE45F20303C4F2010345F20302C4F201021278D2B242F00202D2B21A7045F21303C4F2010345F21302C4F285
:4006400001021278D2B242F00202D2B21A7044F2A033C4F2000344F2A032C4F200021278D2B242F04002D2B21A7044F2C233C4F2000344F2C232C4F200021278D2B242F00D
:400680001002D2B21A7045F20210C4F2000040F6F471C0F200014FF00802FFF7EBFD45F22210C4F2000040F6FC71C0F200014FF00802FFF7DFFD44F22233C4F2000344F29C
:4006C0002232C4F200021278D2B242F00802D2B21A704FF49043C4F200034FF000021A70FFF720FE4FF49043C4F200034FF080021A704FF00403C4F208034FF001021A70FB
:40070000FFF7E6FE44F2B030C4F2000044F2A031C4F200014FF00E02FFF79CFD07F10807BD4680BD80B500AF4FF0280000F098FB4FF0030000F018FA4FF0050000F090FB5F
:400740004FF0030000F010FA4FF00F0000F088FB4FF0030000F008FA4FF0010000F080FB4FF0020000F000FA4FF0050000F078FB4FF0060000F07EF84FF00E0000F07AF871
:400780004FF02C0000F076F84FF0080000F072F84FF0010000F06EF84FF00C0000F06AF84FF0030000F066F84FF0050000F058FB80BD00BF80B500AF4FF00C0000F05AF818
:4007C00048F23C13C1F6FF734FF001021A7080BD80B500AF48F23D13C1F6FF731B78002B08D1FFF79FFF48F23D13C1F6FF734FF001021A70FFF7DEFF80BD00BF80B584B0C5
:4008000000AF78604FF00103FB737B681B78BB730CE0BB7B184600F011F8FB7B7A68D3181B78BB73FB7B03F10103FB73BB7B002BEFD107F11007BD4680BD00BF80B584B0EB
:4008400000AF0346FB7100F031F8FB794FEA1313FB73FB7B184600F02DF9FB7903F00F03FB73FB7B184600F025F907F11007BD4680BD00BF80B584B000AF0346FB7100F03C
:4008800015F8FB794FEA1313FB73FB7B184600F06BF9FB7903F00F03FB73FB7B184600F063F907F11007BD4680BD00BF80B582B000AF45F22013C4F2000345F22012C4F255
:4008C00000021278D2B222F07F02D2B21A7045F22213C4F200031B78DBB223F00F03FB7145F22213C4F20003FA7942F00F02D2B21A7045F22313C4F200031B78DBB223F02F
:400900000F03FB7145F22313C4F20003FA791A7045F22413C4F200031B78DBB223F00F03FB7145F22413C4F20003FA791A7045F22013C4F2000345F22012C4F2000212784C
:40094000D2B222F02002D2B21A7045F22013C4F2000345F22012C4F200021278D2B242F04002D2B21A704FF0000000F09DFA45F22013C4F2000345F22012C4F20002127849
:40098000D2B242F01002D2B21A704FF0010000F08BFA45F22113C4F200031B78FB7145F22013C4F2000345F22012C4F200021278D2B222F01002D2B21A704FF0000000F0D6
:4009C00073FAFB7903F00803FB7145F22013C4F2000345F22012C4F200021278D2B242F01002D2B21A704FF0010000F05DFA45F22013C4F2000345F22012C4F200021278B3
:400A0000D2B222F01002D2B21A70FB79002BAAD145F22013C4F2000345F22012C4F200021278D2B222F04002D2B21A7045F22013C4F2000345F22012C4F200021278D2B2E0
:400A400022F07F02D2B21A7045F22213C4F2000345F22212C4F200021278D2B222F00F02D2B21A7045F22313C4F200031B78DBB223F00F03FB7145F22313C4F20003FA79DE
:400A800042F00F02D2B21A7045F22413C4F200031B78DBB223F00F03FB7145F22413C4F20003FA7942F00F02D2B21A7007F10807BD4680BD80B582B000AF0346FB7145F2D9
:400AC0002013C4F2000345F22012C4F200021278D2B242F02002D2B21A7045F22013C4F2000345F22012C4F200021278D2B222F04002D2B21A704FF0000000F0D5F945F291
:400B00002013C4F2000345F22012C4F200021278D2B222F00F02D2B21A7045F22013C4F2000345F22012C4F200021278D1B2FA790A43D2B242F01002D2B21A704FF0010042
:400B400000F0B2F945F22013C4F2000345F22012C4F200021278D2B222F01002D2B21A7007F10807BD4680BD80B582B000AF0346FB7145F22013C4F2000345F22012C4F202
:400B800000021278D2B222F06002D2B21A7045F22013C4F2000345F22012C4F200021278D2B222F00F02D2B21A7045F22013C4F2000345F22012C4F200021278D1B2FA795C
:400BC0000A43D2B242F01002D2B21A704FF0010000F06AF945F22013C4F2000345F22012C4F200021278D2B222F01002D2B21A7007F10807BD4680BD80B500AF48F23E1305
:400C0000C1F6FF731B78002B08D100F00BF848F23E13C1F6FF734FF001021A7000F08AF880BD00BF80B582B000AF4FF49E43C4F200034FF49E42C4F200021278D2B242F005
:400C40000202D2B21A7044F60273C4F200031B78DBB223F07003FB7144F60273C4F20003FA7942F01002D2B21A7044F60B73C4F2000344F60B72C4F200021278D2B222F0BB
:400C80003002D2B21A7044F60B73C4F2000344F60B72C4F200021278D2B242F03002D2B21A7044F60B73C4F2000344F60B72C4F200021278D2B222F00F02D2B21A7044F63B
:400CC0000B73C4F2000344F60B72C4F200021278D2B242F00F02D2B21A704FF0FF0000F059F84FF07F0000F067F84FF0000000F075F844F2A333C4F2000344F2A332C4F241
:400D000000021278D2B242F00102D2B21A7044F60173C4F2000344F60172C4F200021278D2B242F00102D2B21A7007F10807BD4680BD00BF80B400AF44F2A333C4F2000395
:400D400044F2A332C4F200021278D2B242F00102D2B21A7044F2B333C4F2000344F2B332C4F200021278D2B242F00102D2B21A704FF49E43C4F200034FF49E42C4F20002AE
:400D80001278D2B242F00102D2B21A70BD4680BC704700BF80B483B000AF0346FB7144F60473C4F20003FA7992B21A8007F10C07BD4680BC704700BF80B483B000AF034688
:400DC000FB7144F60673C4F20003FA7992B21A8007F10C07BD4680BC704700BF80B483B000AF0346FB7144F60373C4F20003FA791A7007F10C07BD4680BC704700000000D8
:400E0000142840F2188002B4012114381149097811F0C001890904B40F4A515C04BC00BF00BF00BF88417FF5FDAF00BF00BF02BC704700BF00BF70F104007FF5FCAF704709
:400E40000B050709EFF3108072B6704780F310887047000000480040400E0000AFF3008080B582B000AF78600BE048F21813C1F6FF731B681846FFF7C3FF7B68A3F5004389
:400E80007B607B68B3F5004FEFD848F21013C1F6FF731B687A6802FB03F31846FFF7B0FF07F10807BD4680BD80B582B000AF0346FB80FA8848F21413C1F6FF731B7803FB17
:400EC00002F31846FFF79CFF07F10807BD4680BD38B50E4D0E4B0024E81A8510AC4205D00B4951F8242090470134F7E700F08CF80849094A541AA5100024AC4205D0054B6B
:400F000053F8240080470134F7E738BD1410000014100000141000001C10000010B50023934203D0CC5CC4540133F9E710BD82180346934202D003F8011BFAE770470000F1
:400F40000000000048656C6C6F20576F726C6400004F00400C00105100401000305100404000C05100401000F0510040100000000140001000140140000800400140000ADD
:400F8000004C01400002005001402000014F00400107014002090140040A0140010B0140024001400341014003420140064301400246014001470140015101400A4BEE0C24
:400FC000AF20EE04B820BE10D804DF011F203320CC105308A720D4206302A728D6401B08A708AB20AF01C610EE301B04C608AB04000300000001010001000000007F7F001F
:40100000000000000C001801F8B500BFF8BC08BC9E4670475100000081010000F8B500BFF8BC08BC9E4670472D000000401000000881FF1F1800000020000000000000005E
:401040000000000000366E01C05D0000180000000000E02E000000000000000000000000000000000000000000000000000000000000000000000000000000000000000088
:401080000000000000000000000000000000000000000000000000000000000000000000000000000000000000000000000000000000000000000000000000000000000030
:4010C00000000000000000000000000000000000000000000000000000000000000000000000000000000000000000000000000000000000000000000000000000000000F0
:4011000000000000000000000000000000000000000000000000000000000000000000000000000000000000000000000000000000000000000000000000000000000000AF
:40114000000000000000000000000000000000000000000000000000000000000000000000000000000000000000000000000000000000000000000000000000000000006F
:0200000480007A
:0200000490006A
:0400000000004005B7
:0200000490105A
:04000000BC90ACAF55
:0200000490303A
:02000000E3FC1F
:0200000490402A
:4000000000000000000000000000000000000000000000000000000000000000000000000000000000000000000000000000000000000000000000000000000000000000C0
:400040000000000000000000000000000000000000000000000000000000000000000000000000000000000000000000000000000000000000000000000000000000000080
:400080000000000000000000000000000000000000000000000000000000000000000000000000000000000000000000000000000000000000000000000000000000000040
:4000C0000000000000000000000000000000000000000000000000000000000000000000000000000000000000000000000000000000000000000000000000000000000000
:0200000490501A
:0C00000000012E12306900012E19146559
:00000001FF