:400000000080002011000000BD050000BD05000080B500AF47F2BC63C4F2000344F2FA62C4F2000212681A6000F0CCFA080002230000087608000323000010760800042314
:400040000000287608000523000030760500062300002070050007230000307005000823000060700500FE230000707030000A22000040511000FE220000F05180010C226C
:400080000000000080010D220000000880050E220000000A80010F220000001A8000102200000043000111220000004580001222000000478000FE220000004D0700142369
:4000C000000000520700152300000852060016230000605220001723000070642000FE2300007065080019230000005180001A230000000280001B230000800280001C238D
:400100000000000480001D230000800480001E230000000680001F23000080068000202300000014800021230000801480002223000000168000232300008016800024233B
:4001400000000018800025230000801810002623000010501000272300000050800028230000804D800029230000004C80002A230000804C80002B230000804780002C23F7
:400180000000004680002D230000804680002E230000004480002F2300008044800030230000801B8000312300000015800032230000801580003323000000198000342331
:4001C000000080198000352300000017800036230000801780003723000080098000382300000007800039230000800780003A230000000580003B230000800580003C233B
:400200000000000380003D230000800380003E230000800F80003F2300008001800040230000004980004123000080498000422300000048800043230000804880004423EA
:4002400000008043800045230000004280004623000080428000472300000041800048230000804180004923000000408000FE23000080400100000001000000010000007F
:400280000048014001000000004800400100000000200140010000000020004010B5054C237833B9044810B10448AFF300800121217010BD4081FF1F00000000B03D000005
:4002C00008B5064B1BB106480649AFF300800648016811B1054A02B1904708BD00000000B03D00004481FF1F0881FF1F0000000080B500AF03F09AFA03F01AF903F0BEF8BD
:4003000003F000F980BD00BF80B500AF03F01CFA03F06AF903461A4648F27E13C1F6FF731A8003F005F980BDB0B586B000AF62B603F038F840F2F120C0F2000003F022FAA4
:4003400003F00EFA40F20930C0F2000003F0A8F903F094F900F0CEFD41F294133B824FF03203FB8162B601F03BF83B8A4FF00100194601F03FF901F0E5FC01F001FD4FF442
:400380007A6002F041FF48F27E13C1F6FF731B88BB814FF000004FF0000100F0C1FDBB89184601F007F84FF49053FB824FF0010042F21C5101F01EF9FB8A4FF001001946EF
:4003C00001F0E8F800E000BF01F0CEFA0346002BF9D0FB8A03F16403FB82FB8A4FF00100194601F0D7F84FF47A7002F00DFF48F27E13C1F6FF731B881A46BB8903F10203F7
:400400009A420EDC4FF000004FF00C0100F088FDFB8A184600F0CEFF4FF0640002F0F4FED1E700BFFB8AA3F164037B814FF032033B81BB89BB824FF000037B8200E000BF4D
:400440004FF4FA7002F0E0FE48F27E13C1F6FF731B88BA8A9A4209D248F27E13C1F6FF731B88BB824FF000037B82E8E77B8A03F101037B827B8A0A2BE1D900BF4FF000009F
:400480004FF0060100F04CFDBB8A184600F092FF4FF001004FF0320101F07CF84FF47A6002F0B2FE00E000BF01F05EFA0346002BF9D04FF0010001F077FC0346002BF2D0C4
:4004C00001F09CFC03469BB203F10103FB80FB88184603F06DFA034618464FF0874103F073FB03461C46BB8A184603F061FA0546BB89184603F05CFA03462846194603F045
:40050000A5F903462046194603F0AAFA03461C46BB89184603F04CFA03462046194603F097F90346184603F0EBFB0346BB8048F27E13C1F6FF731B88BA88D31A9BB27B804F
:4005400048F20C13C1F6FF731B887A8802FB03F39BB23B804FF001004FF0000100F0E0FCBB88184600F026FF4FF001004FF0060100F0D6FC7B88184600F01CFF4FF0010063
:400580004FF00C0100F0CCFC3B88184600F012FFB7F90030002B09DB3B8803F132039BB24FF00100194600F0F5FF7CE74FF001004FF0320100F0EEFF75E700BF80B400AF7A
:4005C000FEE700BF80B586B000AF40F20103C0F200037B6143F62473C0F200033B6140F20103C0F200037B6143F62473C0F200033B613BE03B691B68FB603B695B68BB604E
:400600003B699B683B604FF000037B600FE0FB681A68BB681A60BB6803F10403BB60FB6803F10403FB607B6803F104037B607A683B689A42EBD13B69DB683B604FF000035E
:400640007B600BE0BB684FF000021A60BB6803F10403BB607B6803F104037B607A683B689A42EFD13B6903F110033B617B69002B0CBF00230123DBB27A6902F1FF327A61EC
:40068000002BB7D103F05CFBFFF74EFEFEE700BF80B582B000AF4EF60C53CEF200034FF48062C0F2FA521A604EF61453CEF200034EF61452CEF20002126842F400721A60C8
:4006C0004FF000037B6019E07B68032B07D840F20003C0F200037A6853F8223003E040F2BD53C0F2000348F20002C1F6FF72796842F821307B6803F101037B607B682F2BEE
:40070000E2D947F2BC63C4F200031B78DAB248F20413C1F6FF731A704EF60853CEF2000348F20002C1F6FF721A6000F0C3FA02F02BFB48F20013C1F6FF734FF000021A6094
:4007400007F10807BD4680BD80B582B000AF7860396078684FF000013A6803F020FB07F10807BD4680BD00BF80B584B000AFF860B9607A60F868B9687A6803F007FB07F122
:400780001007BD4680BD00BF80B483B000AF0346FB71FEE780B582B000AF48F28813C1F6FF734FF000021A604FF4EC43C4F200034FF010021A7047F21003C4F200034FF05A
:4007C00001021A7047F21903C4F200034FF000021A704FF4F043C4F200034FF412721A8047F60203C4F200034FF001021A7047F60303C4F200034FF003021A7047F604032E
:40080000C4F2000340F22C02C0F2000292B21A8047F60603C4F2000347F608021A8047F20463C4F200034FF000021A8047F20663C4F200034FF480421A8047F22903C4F2E4
:4008400000034FF009021A7047F23903C4F200034FF00B021A7047F26903C4F200034FF013021A7047F27903C4F200034FF018021A70BFF35F8F47F21403C4F200034FF028
:4008800001021A70BFF35F8F00BF4FF4F043C4F200031B889BB2002BF7D14FF000037B6015E07B684FEAC30247F60C03C4F20003D3181A4643F6C053C0F20003796853F8CA
:4008C00021309BB213807B6803F101037B607B68482BE6D9BFF35F8F47F21403C4F200034FF001021A70BFF35F8F00BF47F21803C4F200031B78DBB203F00103002BF5D113
:4009000000BF47F22803C4F200031B78DBB203F00103002BF5D100BF47F23803C4F200031B78DBB203F00103002BF5D100BF47F26803C4F200031B78DBB203F00103002B81
:40094000F5D100BF47F27803C4F200031B78DBB203F00103002BF5D145F21010C4F201004FF090414FF00602FFF7FEFE07F10807BD4680BD80B582B000AF4FF48143C4F20C
:4009800000034FF000021A8044F28203C4F200034FF050021A7044F28403C4F200034FF001021A8044F28603C4F200034FF018021A7044F28803C4F200034FF001021A80C7
:4009C00044F28A03C4F200034FF018021A7044F28C03C4F200034FF005021A8044F28E03C4F200034FF019021A7044F29003C4F200034FF04A021A8044F29203C4F20003AB
:400A00004FF018021A7044F29403C4F200034FF01D021A8044F29603C4F200034FF019021A704FF48240C4F2000041F63401C4F600014FF00402FFF797FE4FF48643C4F275
:400A400000034FF002021A704FF040234FF008021A704FF48443C4F200034FF003021A7044F2A163C4F200034FF48472C4F600121278D2B21A7044F22223C4F200034FF09D
:400A800008021A8044F22023C4F2000341F251221A804FF00003FB704FF019037B6019E0FB784FEA4303DAB244F22523C4F200031B78DBB203F00103DBB21343DBB203F015
:400AC0000303FB704FF4F07002F04AF97B6803F1FF337B607B68002B02D0FB78032BDFD17B68002B03D14FF00300FFF74DFE44F20403C4F200034FF480721A8044F2040331
:400B0000C4F200034FF007021A7044F20603C4F200034FF000021A7044F20803C4F200034FF048021A7044F20403C4F200034FF000021A7044F20103C4F200034FF0020263
:400B40001A7044F20B03C4F200034FF004021A7044F2A233C4F2000344F2A232C4F200021278D2B242F03F02D2B21A7044F2A133C4F2000344F2A132C4F200021278D2B278
:400B800042F00102D2B21A7044F2A033C4F2000344F2A032C4F200021278D2B262F07F02D2B21A7007F10807BD4680BD80B483B000AF40F2CF13C4F600131B78FB7145F609
:400BC0006E03C4F20003FA7902F00702D2B21A7045F66F03C4F20003FA794FEA1212D2B21A7045F20D13C4F200034FF001021A704FF4B643C4F200034FF010021A7045F624
:400C00007603C4F200034FF044021A7007F10C07BD4680BC704700BF80B483B000AF0346FB71FB79012B17D8FA7943F6B453C0F2000353F82220F97943F6B453C0F20003FD
:400C400053F821301978F87943F6BC53C0F200031B5C0B43DBB2137007F10C07BD4680BC704700BF80B483B000AF0346FB71FB79012B1AD8FA7943F6B453C0F2000353F834
:400C80002220F97943F6B453C0F2000353F821301978F87943F6BC53C0F200031B5C6FEA0303DBB20B40DBB2137007F10C07BD4680BC704780B500AF72B644F2E863C4F2EE
:400CC000000344F2E862C4F200021278D2B242F00402D2B21A70FFF75DFD45F68303C4F200034FF00A021A704FF4EC40C4F200004FF00401FFF728FD45F20303C4F201034B
:400D000045F20302C4F201021278D2B242F00202D2B21A7045F21303C4F2010345F21302C4F201021278D2B242F00202D2B21A7044F2A033C4F2000344F2A032C4F200028C
:400D40001278D2B242F04002D2B21A7044F2C233C4F2000344F2C232C4F200021278D2B242F01002D2B21A7045F20210C4F2000041F60801C4F600014FF00802FFF7F4FC94
:400D800045F2C210C4F2000041F61001C4F600014FF00802FFF7E8FC45F21210C4F2000041F61801C4F600014FF00802FFF7DCFC45F22210C4F200004FF4C151C4F60001EE
:400DC0004FF00802FFF7D0FC45F23010C4F2000041F62801C4F600014FF00A02FFF7C4FC44F22233C4F2000344F22232C4F200021278D2B242F00802D2B21A704FF49043AB
:400E0000C4F200034FF001021A70FFF7B3FD4FF49043C4F200034FF081021A704FF00403C4F208034FF001021A70FFF7BFFE44F2B030C4F2000044F2A031C4F200014FF01D
:400E40000E02FFF791FC80BD80B500AF4FF0280002F0DAF94FF0030000F042FA4FF0050002F0D2F94FF0030000F03AFA4FF00F0002F0CAF94FF0030000F032FA4FF001001C
:400E800002F0C2F94FF0020000F02AFA4FF0050002F0BAF94FF0060000F0A8F84FF00E0000F0A4F84FF02C0000F0A0F84FF0080000F09CF84FF0010000F098F84FF00C00D0
:400EC00000F094F84FF0030000F090F84FF0050002F09AF980BD00BF80B500AF4FF00C0000F084F848F29013C1F6FF734FF001021A7080BD80B500AF48F29113C1F6FF7362
:400F00001B78002B08D1FFF79FFF48F29113C1F6FF734FF001021A70FFF7DEFF80BD00BF80B582B000AF02460B46FA71BB71FB79032B2BD801A252F823F000BF4D0F0000DE
:400F40005D0F00006D0F00007D0F0000BB79A3F18003DBB2184600F049F818E0BB79A3F14003DBB2184600F041F810E0BB79A3F16C03DBB2184600F039F808E0BB79A3F19C
:400F80002C03DBB2184600F031F800E000BF07F10807BD4680BD00BF80B582B000AF0346FB71FB79184600F005F807F10807BD4680BD00BF80B584B000AF0346FB7100F00C
:400FC00031F8FB794FEA1313FB73FB7B184600F02DF9FB7903F00F03FB73FB7B184600F025F907F11007BD4680BD00BF80B584B000AF0346FB7100F015F8FB794FEA131329
:40100000FB73FB7B184600F06BF9FB7903F00F03FB73FB7B184600F063F907F11007BD4680BD00BF80B582B000AF45F22013C4F2000345F22012C4F200021278D2B222F08B
:401040007F02D2B21A7045F22213C4F200031B78DBB223F00F03FB7145F22213C4F20003FA7942F00F02D2B21A7045F22313C4F200031B78DBB223F00F03FB7145F22313DE
:40108000C4F20003FA791A7045F22413C4F200031B78DBB223F00F03FB7145F22413C4F20003FA791A7045F22013C4F2000345F22012C4F200021278D2B222F02002D2B274
:4010C0001A7045F22013C4F2000345F22012C4F200021278D2B242F04002D2B21A704FF0000002F0B5F845F22013C4F2000345F22012C4F200021278D2B242F01002D2B29A
:401100001A704FF0010002F0A3F845F22113C4F200031B78FB7145F22013C4F2000345F22012C4F200021278D2B222F01002D2B21A704FF0000002F08BF8FB7903F008038B
:40114000FB7145F22013C4F2000345F22012C4F200021278D2B242F01002D2B21A704FF0010002F075F845F22013C4F2000345F22012C4F200021278D2B222F01002D2B2C6
:401180001A70FB79002BAAD145F22013C4F2000345F22012C4F200021278D2B222F04002D2B21A7045F22013C4F2000345F22012C4F200021278D2B222F07F02D2B21A70E4
:4011C00045F22213C4F2000345F22212C4F200021278D2B222F00F02D2B21A7045F22313C4F200031B78DBB223F00F03FB7145F22313C4F20003FA7942F00F02D2B21A70A7
:4012000045F22413C4F200031B78DBB223F00F03FB7145F22413C4F20003FA7942F00F02D2B21A7007F10807BD4680BD80B582B000AF0346FB7145F22013C4F2000345F27F
:401240002012C4F200021278D2B242F02002D2B21A7045F22013C4F2000345F22012C4F200021278D2B222F04002D2B21A704FF0000001F0EDFF45F22013C4F2000345F2EA
:401280002012C4F200021278D2B222F00F02D2B21A7045F22013C4F2000345F22012C4F200021278D1B2FA790A43D2B242F01002D2B21A704FF0010001F0CAFF45F22013BA
:4012C000C4F2000345F22012C4F200021278D2B222F01002D2B21A7007F10807BD4680BD80B582B000AF0346FB7145F22013C4F2000345F22012C4F200021278D2B222F05E
:401300006002D2B21A7045F22013C4F2000345F22012C4F200021278D2B222F00F02D2B21A7045F22013C4F2000345F22012C4F200021278D1B2FA790A43D2B242F01002E1
:40134000D2B21A704FF0010001F082FF45F22013C4F2000345F22012C4F200021278D2B222F01002D2B21A7007F10807BD4680BD80B582B000AF0346FB71FB794FEA131344
:40138000DBB21A4643F6E463C0F200039B5C1846FFF702FEFB7903F00F0243F6E463C0F200039B5C1846FFF7F7FD07F10807BD4680BD00BF80B582B000AF0346FB80FB8871
:4013C0004FEA13239BB2DBB21846FFF7D1FFFB88DBB21846FFF7CCFF07F10807BD4680BD80B500AF48F29413C1F6FF731B78002B08D100F00BF848F29413C1F6FF734FF049
:4014000001021A7000F086F880BD00BF80B582B000AF00F0DBF94FF00003FB7130E0FA7943F6F863C0F2000353F832304FF470721A8001F09FFC0346BB71FB7943F6F862ED
:40144000C0F200024FEAC303D3185B681946FB7943F6F862C0F200024FEAC303D3185B681B889BB243F4407343F003039BB20B80BB79184601F082FCFB7903F10103FB7180
:40148000FB79002BCBD04FF00003FB7119E0FB7903F10103D8B2F97948F21012C1F6FF720B464FEAC3035B1A4FEA4303D31803F108035B88194600F09DF8FB7903F10103FE
:4014C000FB71FB79002BE2D001F054FC0346BB7146F29653C4F2000346F29652C4F200021278D2B242F02002D2B21A70BB79184601F044FC46F22753C4F200034FF03C02AC
:401500001A704FF0010000F033F807F10807BD4680BD00BF80B582B000AF46F27743C4F200034FF023021A7001F024FC0346FB7146F29443C4F2000346F29442C4F20002BD
:401540001278D2B242F01002D2B21A7048F29513C1F6FF731B7818464FF0010101F04CFCFB79184601F00AFC07F10807BD4680BD80B483B000AF0346FB8046F27643C4F204
:401580000003FA88D2B21A7007F10C07BD4680BC704700BF80B485B000AF02460B46FA71BB80FB79012B20D8BA8813464FEA03139B1A4FEA83131A4641F25973CDF2B71393
:4015C000A3FB02134FEA5333FB60FB68B3F5707F0BD8FB7903F1FF3243F6F463C0F2000353F82230FA6892B21A8007F11407BD4680BC7047B0B584B000AF02460B46FA7131
:40160000BB80FB79012B00F2AF80FB79184600F0AFF803467B81FB7903F1FF3148F21012C1F6FF720B464FEAC3035B1A4FEA4303D3181B88BA889A4248D2FB7903F1FF3142
:4016400048F21012C1F6FF720B464FEAC3035B1A4FEA4303D3189B881846FB7903F1FF3148F21012C1F6FF720B464FEAC3035B1A4FEA4303D31803F108031B881C46FB7973
:4016800003F1FF3148F21012C1F6FF720B464FEAC3035B1A4FEA4303D3181B881A46BB88D31A03FB04F248F21F53C5F2EB13A3FB02134FEA5313C31AFB60FA6842F2107328
:4016C0009A424AD94FF00003FB6046E0FB7903F1FF3148F21012C1F6FF720B464FEAC3035B1A4FEA4303D3189B881846FB7903F1FF3148F21012C1F6FF720B464FEAC303F0
:401700005B1A4FEA4303D31803F108031B881C46BD88FB7903F1FF3148F21012C1F6FF720B464FEAC3035B1A4FEA4303D3181B88EB1A03FB04F248F21F53C5F2EB13A3FB9B
:4017400002134FEA5313C318FB60FA6842F210739A4202D942F21073FB60FB689BB2FA7910461946FFF716FF07F11007BD46B0BD80B485B000AF0346FB714FF00003FB81B0
:40178000FB79012B1BD8FB7903F1FF3248F2B413C1F6FF7333F81230002B10D0FB7903F1FF3248F2B413C1F6FF7333F812301A464CF28033C0F2C913B3FBF2F3FB81FB89B9
:4017C000184607F11407BD4680BC704790B583B000AF48F2B413C1F6FF734FEA13439BB24FF002004FF001014FF4804200F08AF803461A4648F29513C1F6FF731A704FF0DF
:401800000003FB710DE0FC7901F044FC03461A4648F29813C1F6FF731A55FB7903F10103FB71FB79002BEED04FF00003FB7134E0FB79C3F10003BB71BB79002B13D1BA79BC
:4018400048F29813C1F6FF739A5C48F29813C1F6FF731B7810464FF002011A464FF0060301F054FC15E0BA7948F29813C1F6FF739A5CBB7903F1FF3148F29813C1F6FF73B0
:401880005B5C10464FF002011A464FF0020301F03DFCFB7903F10103FB71FB79002BC7D04FF00003FB7118E0FA7948F29813C1F6FF739A5CFB794FEA430148F2B413C1F637
:4018C000FF73CB189BB2104646F608211A4601F05BFCFB7903F10103FB71FB79002BE3D048F29513C1F6FF731A7848F29813C1F6FF731B781046194601F058FB07F10C0777
:40190000BD4690BD80B586B002AFF871B971BA807B804FF00003FB73FB7BFF2B1DD0F97BFA79BB794FF0000000904FF000000190084611461A464FF0000301F059FBF97B7C
:40194000BA887B88084611461A4601F0EBFAFB7B18464FF0020101F0ADFAFB7B184607F11007BD4680BD00BF80B400AF46F26343C4F200031B78DBB21846BD4680BC7047C9
:4019800080B582B002AF48F22013C1F6FF734FF001021A7048F29C13C1F6FF734FF000021A704FF0100001F07FF84FF0100001F0A9F94FF01D004FF0070101F08DFC45F6DF
:4019C0009603C4F200034FF007021A7045F69703C4F200034FF000021A7045F69E03C4F200034FF000021A7045F60733C4F2000345F60732C4F200021278D2B242F0180256
:401A0000D2B21A7045F69303C4F200034FF000021A7045F68833C4F200034FF000021A7045F68933C4F200034FF000021A704FF4B143C4F200034FF00A021A7045F68103CA
:401A4000C4F200034FF000021A7045F68303C4F200034FF000021A7045F68803C4F200034FF012021A7045F68903C4F200034FF013021A7045F68D03C4F200034FF000021E
:401A80001A7044F60163C4F200034FF014021A704FF0010300934FF0020048F66B514FF400424FF0080300F091FD4FF0020300934FF0000049F2DA014FF400424FF0100305
:401AC00000F084FD4FF0030300934FF0000049F2DA014FF400424FF0100300F077FD4FF0040300934FF0000049F2DA014FF400424FF0100300F06AFD44F60E63C4F200034D
:401B000048F22012C1F6FF721278D2B202F1FF3248F2A011C1F6FF714FEA82028A1892781A7044F60C63C4F2000348F22012C1F6FF721278D2B202F1FF3148F2A012C1F610
:401B4000FF7232F821201A8048F22013C1F6FF731B78DBB2184600F099F9BD4680BD00BF80B582B000AF01F005F90346FB7148F22013C1F6FF731B78BB7144F2AA33C4F282
:401B8000000344F2AA32C4F200021278D2B242F00102D2B21A7044F2AA33C4F2000344F2AA32C4F200021278D2B242F01002D2B21A7044F2BA33C4F2000344F2BA32C4F25D
:401BC00000021278D2B242F00102D2B21A7044F2BA33C4F2000344F2BA32C4F200021278D2B242F01002D2B21A7044F2F863C4F2000344F2F862C4F200021278D2B242F0AA
:401C00000202D2B21A7044F2F963C4F2000344F2F962C4F200021278D2B242F00202D2B21A7045F69103C4F2000345F69102C4F200021278D2B242F00302D2B21A704FF00C
:401C4000030001F005FB44F2F863C4F2000344F2F862C4F200021278D2B222F00202D2B21A7044F2F963C4F2000344F2F962C4F200021278D2B222F00202D2B21A7045F6AB
:401C80007703C4F2000345F67702C4F200021278D2B242F00602D2B21A7045F68203C4F200034FF07A021A7044F2A133C4F2000344F2A132C4F200021278D2B242F00102AA
:401CC000D2B21A7044F2B133C4F2000344F2B132C4F200021278D2B242F00102D2B21A7044F2A233C4F2000344F2A232C4F200021278D2B242F00102D2B21A7044F2B233EF
:401D0000C4F2000344F2B232C4F200021278D2B242F00102D2B21A704EF28023CEF200034FF000521A604FF46143CEF200034FF000521A60FB79184601F020F807F108077F
:401D4000BD4680BD80B500AF48F29E13C1F6FF731B78002B10D148F29F13C1F6FF731B78DBB2002B01D1FFF70BFE48F29E13C1F6FF734FF001021A70FFF7F2FE80BD00BF99
:401D800080B400AF4FF49C43C4F200034FF49C42C4F200021278D2B242F00102D2B21A70BD4680BC704700BF80B485B000AF0346FB7148F29D13C1F6FF731B78DBB2002B5B
:401DC00006D048F29C13C1F6FF731B78FB7308E044F60163C4F200031B78DBB203F00103FB73FB7B012B02D0FB79002BE1D0FB7B184607F11407BD4680BC704780B483B02E
:401E000000AF44F61463C4F200031B78DBB203F003037B717B79012B06D844F61063C4F200031B88FB801AE044F61063C4F200031B78DBB2FB8044F61163C4F200031B780D
:401E4000DBB24FEA03239AB2FB881343FB807B79032B04D144F61263C4F200031B7848F29D13C1F6FF731B78DBB2002B06D048F29C13C1F6FF734FF000021A70FB881BB283
:401E8000184607F10C07BD4680BC704780B582B000AF0346FB7148F29D13C1F6FF734FF000021A70FB79012B40F0E0804FF49C43C4F200034FF038021A7044F60263C4F2B7
:401EC00000034FF004021A7044F60363C4F200034FF006021A7044F60463C4F200034FF000021A7044F60563C4F200034FF000021A7044F60663C4F200034FF00F021A7065
:401F000044F60863C4F200034FF000021A7044F60963C4F200034FF000021A7044F60A63C4F200034FF000021A7044F61463C4F200034FF001021A7045F68403C4F2000372
:401F40004FF014021A7045F68503C4F200034FF005021A7045F68603C4F200034FF016021A7045F68703C4F200034FF000021A7045F68A03C4F200034FF044021A7045F6C4
:401F80008B03C4F200034FF048021A7045F68C03C4F200034FF001021A7045F68E03C4F200034FF001021A7045F68F03C4F200034FF011021A7045F69003C4F200034FF0FF
:401FC00019021A7045F69103C4F200034FF097021A704FF0520000F0C7FB45F69403C4F200034FF058021A7045F69503C4F200034FF000021A7045F69A03C4F200034FF03A
:4020000005021A7045F69B03C4F200034FF002021A7045F69C03C4F200034FF000021A7045F69D03C4F200034FF000021A704FF0000000F023FC48F2B813C1F6FF734FF038
:4020400033021A604FF024004FF0010100F02CFC4FF095004FF0010100F054FD4FF01D0042F61101C0F2000101F006F9FB79022B40F0E0804FF49C43C4F200034FF03802D1
:402080001A7044F60263C4F200034FF004021A7044F60363C4F200034FF006021A7044F60463C4F200034FF000021A7044F60563C4F200034FF000021A7044F60663C4F2A1
:4020C00000034FF03F021A7044F60863C4F200034FF000021A7044F60963C4F200034FF000021A7044F60A63C4F200034FF000021A7044F61463C4F200034FF001021A701F
:4021000045F68403C4F200034FF050021A7045F68503C4F200034FF027021A7045F68603C4F200034FF02C021A7045F68703C4F200034FF000021A7045F68A03C4F200035D
:402140004FF055021A7045F68B03C4F200034FF05A021A7045F68C03C4F200034FF005021A7045F68E03C4F200034FF001021A7045F68F03C4F200034FF011021A7045F657
:402180009003C4F200034FF019021A7045F69103C4F200034FF097021A704FF0440000F0E3FA45F69403C4F200034FF058021A7045F69503C4F200034FF000021A7045F675
:4021C0009A03C4F200034FF005021A7045F69B03C4F200034FF002021A7045F69C03C4F200034FF000021A7045F69D03C4F200034FF000021A704FF0000000F03FFB48F2FA
:40220000B813C1F6FF734FF47A421A604FF008004FF0010100F048FB4FF025004FF0010100F070FC4FF01D0042F61D01C0F2000101F022F8FB79032B40F0E0804FF49C43B1
:40224000C4F200034FF038021A7044F60263C4F200034FF004021A7044F60363C4F200034FF006021A7044F60463C4F200034FF000021A7044F60563C4F200034FF0000290
:402280001A7044F60663C4F200034FF03F021A7044F60863C4F200034FF000021A7044F60963C4F200034FF000021A7044F60A63C4F200034FF000021A7044F61463C4F249
:4022C00000034FF001021A7045F68403C4F200034FF050021A7045F68503C4F200034FF027021A7045F68603C4F200034FF02C021A7045F68703C4F200034FF000021A704E
:4023000045F68A03C4F200034FF055021A7045F68B03C4F200034FF05A021A7045F68C03C4F200034FF005021A7045F68E03C4F200034FF001021A7045F68F03C4F200032B
:402340004FF011021A7045F69003C4F200034FF019021A7045F69103C4F200034FF097021A704FF0440000F0FFF945F69403C4F200034FF058021A7045F69503C4F2000387
:402380004FF000021A7045F69A03C4F200034FF005021A7045F69B03C4F200034FF002021A7045F69C03C4F200034FF000021A7045F69D03C4F200034FF000021A704FF096
:4023C000000000F05BFA48F2B813C1F6FF734FF47A421A604FF008004FF0010100F064FA4FF025004FF0010100F08CFB4FF01D0042F62901C0F2000100F03EFFFB79042BBE
:4024000040F0E0804FF49C43C4F200034FF038021A7044F60263C4F200034FF004021A7044F60363C4F200034FF006021A7044F60463C4F200034FF000021A7044F6056316
:40244000C4F200034FF000021A7044F60663C4F200034FF03F021A7044F60863C4F200034FF000021A7044F60963C4F200034FF000021A7044F60A63C4F200034FF000027E
:402480001A7044F61463C4F200034FF001021A7045F68403C4F200034FF050021A7045F68503C4F200034FF027021A7045F68603C4F200034FF02C021A7045F68703C4F269
:4024C00000034FF000021A7045F68A03C4F200034FF055021A7045F68B03C4F200034FF05A021A7045F68C03C4F200034FF005021A7045F68E03C4F200034FF001021A7022
:4025000045F68F03C4F200034FF011021A7045F69003C4F200034FF019021A7045F69103C4F200034FF097021A704FF0440000F01BF945F69403C4F200034FF058021A70AF
:4025400045F69503C4F200034FF000021A7045F69A03C4F200034FF005021A7045F69B03C4F200034FF002021A7045F69C03C4F200034FF000021A7045F69D03C4F2000352
:402580004FF000021A704FF0000000F077F948F2B813C1F6FF734FF47A421A604FF008004FF0010100F080F94FF025004FF0010100F0A8FA4FF01D0042F63501C0F2000165
:4025C00000F05AFE07F10807BD4680BD80B586B000AFF871B9807A80BB7197F82030002B00F0BA8097F82030042B00F2B580FB7903F1FF33092B63D801A252F823F000BF39
:4026000029260000C1260000C126000029260000C1260000C12600004F26000075260000C12600009B260000BB790F2B07D94FF48C73C4F600131B78DBB2FB7544E04FF454
:402640008E73C4F600131B78DBB2FB753CE0BB790F2B07D940F21913C4F600131B78DBB2FB7531E040F21D13C4F600131B78DBB2FB7529E0BB790F2B07D94FF48D73C4F6B3
:4026800000131B78DBB2FB751EE04FF48F73C4F600131B78DBB2FB7516E0BB790F2B07D940F21B13C4F600131B78DBB2FB750BE040F21F13C4F600131B78DBB2FB7503E047
:4026C0004FF00003FB7500BFBA8897F917304FEA4313D3183B617B883A6902FB03F3FB60FB684FEAD333BB82BB790D2B1AD8BA8ABB796FEA030303F10F0342FA03F3BB82BD
:4027000097F8203003F1FF33BA7902F10102D1B248F2A012C1F6FF724FEA8303D3180A469A700DE097F8203003F1FF3348F2A012C1F6FF724FEA8303D3184FF00F029A70C6
:4027400097F8203003F1FF3248F2A013C1F6FF73B98A23F8221003E04FF0000000F048FD07F11807BD4680BD80B584B000AF0346FB7100F0FFFA0346FB7344F2F863C4F24D
:40278000000344F2F862C4F200021278D2B242F00302D2B21A7044F2F963C4F2000344F2F962C4F200021278D2B242F00302D2B21A7045F69203C4F20003FA791A704FF0CF
:4027C000030000F045FD44F2F863C4F2000344F2F862C4F200021278D2B222F00302D2B21A7044F2F963C4F2000344F2F962C4F200021278D2B222F00302D2B21A70FB7BA2
:40280000184600F0BBFA07F11007BD4680BD00BF80B400AFBD4680BC704700BF80B400AFBD4680BC704700BF80B400AFBD4680BC704700BF80B400AFBD4680BC704700BF27
:4028400080B582B000AF4FF00003FB7107E0FB791846FEF707FAFB7903F10103FB71FB79012BF4D948F22113C1F6FF734FF0FF021A7007F10807BD4680BD00BF80B582B0D2
:4028800000AF0346FB71FFF7DBFFFB791846FEF7C3F948F22113C1F6FF73FA791A7007F10807BD4680BD00BF80B584B000AF02460B46FA807B7100F015F90346FB7300F00B
:4028C000E7F80346BB81FA88BB899A4200F0DC8044F2A233C4F200031B78DBB203F00103FB72FB7B002B32D1BB89002B02D0FB88002B2CD1BB89002B14D14FF48143C4F29D
:402900000003FA881A8044F28203C4F2000344F28202C4F200021278D2B222F04002D2B21A70B1E044F28203C4F2000344F28202C4F200021278D2B242F04002D2B21A701B
:402940004FF48143C4F20003FA881A809CE0FB7A002B5CD044F20103C4F200034FF000021A7044F21003C4F200034FF001021A7044F21403C4F200034FF000021A7044F2A0
:402980000803C4F2000344F20802C4F200021278D2B202F07F02D2B21A7044F28203C4F200031B78DBB203F00803002B02D0FB88002B2CD144F20203C4F20003BA891A80C1
:4029C00044F20103C4F200034FF007021A7000BF44F20103C4F200031B78DBB203F00103002BF5D144F2A233C4F2000344F2A232C4F200021278D2B222F00102D2B21A70A1
:402A000044F20103C4F200034FF000021A7044F2A233C4F200031B78DBB203F00103002B1ED044F20203C4F20003FA881A8044F20103C4F200037A79002A02D04FF00302AE
:402A400001E04FF001021A7000BF44F20103C4F200031B78DBB203F00103002BF5D113E04FF48143C4F20003FA881A8044F2A233C4F2000344F2A232C4F200021278D1B28D
:402A8000FA7A0A43D2B21A7007F11007BD4680BD80B400AF4FF48143C4F200031B889BB21846BD4680BC704780B483B000AF0346FB7144F28203C4F2000344F28202C4F262
:402AC00000021278D2B2D1B2FA7922F00702D2B20A43D2B2D2B21A7007F10C07BD4680BC704700BF80B400AF44F28203C4F200031B78DBB203F00703DBB21846BD4680BCF4
:402B0000704700BF80B584B000AF02460B46FA807B7100F015F90346FB7300F0E7F80346BB81FA88BB899A4200F0DC8044F2A133C4F200031B78DBB203F00103FB72FB7B54
:402B4000002B32D1BB89002B02D0FB88002B2CD1BB89002B14D14FF48243C4F20003FA881A8044F20213C4F2000344F20212C4F200021278D2B222F04002D2B21A70B1E003
:402B800044F20213C4F2000344F20212C4F200021278D2B242F04002D2B21A704FF48243C4F20003FA881A809CE0FB7A002B5CD044F20103C4F200034FF000021A7044F266
:402BC0001403C4F200034FF001021A7044F21003C4F200034FF000021A7044F20803C4F2000344F20802C4F200021278D2B202F07F02D2B21A7044F20213C4F200031B7854
:402C0000DBB203F00803002B02D0FB88002B2CD144F20203C4F20003BA891A8044F20103C4F200034FF007021A7000BF44F20103C4F200031B78DBB203F00103002BF5D111
:402C400044F2A133C4F2000344F2A132C4F200021278D2B222F00102D2B21A7044F20103C4F200034FF000021A7044F2A133C4F200031B78DBB203F00103002B1ED044F2B8
:402C80000203C4F20003FA881A8044F20103C4F200037A79002A02D04FF0030201E04FF001021A7000BF44F20103C4F200031B78DBB203F00103002BF5D113E04FF48243B2
:402CC000C4F20003FA881A8044F2A133C4F2000344F2A132C4F200021278D1B2FA7A0A43D2B21A7007F11007BD4680BD80B400AF4FF48243C4F200031B889BB21846BD465B
:402D000080BC704780B483B000AF0346FB7144F20213C4F2000344F20212C4F200021278D2B2D1B2FA7922F00702D2B20A43D2B2D2B21A7007F10C07BD4680BC704700BF8D
:402D400080B400AF44F20213C4F200031B78DBB203F00703DBB21846BD4680BC704700BF0230800800F0058000BF013800467FF4FCAF7047EFF3108072B6704780F3108811
:402D8000704700BFAFF3008080B483B000AF48F22513C1F6FF734FF07F021A7048F22413C1F6FF734FF080021A704FF07F03FB710FE0FB794FEAC30303F1804303F5F0432A
:402DC000FA7902F1FF32D2B21A70FB7903F1FF33FB71FB79002BECD1FB794FEAC30303F1804303F5F0434FF000021A7007F10C07BD4680BC704700BF80B485B000AF02468C
:402E00000B46FA71BB714FF00103FB60FB79172B48D8BB79002B16D0FB794FEA031247F21003C4F20003D318FA794FEA021147F21002C4F200028A181278D2B242F0200279
:402E4000D2B21A7015E0FB794FEA031247F21003C4F20003D318FA794FEA021147F21002C4F200028A181278D2B222F02002D2B21A70FB794FEA031247F21003C4F2000322
:402E8000D318FA794FEA021147F21002C4F200028A181278D2B242F00102D2B21A704FF00003FB60FB68184607F11407BD4680BC704700BF80B485B000AF02460B46FA7130
:402EC000BB714FF00103FB60FB79172B22D8FB794FEA031247F21003C4F20003D3181B78DBB223F00E03FB72FB794FEA031247F21003C4F20003D318BA7902F00702D2B291
:402F00004FEA4202D1B2FA7A0A43D2B21A704FF00003FB60FB68184607F11407BD4680BC704700BF80B485B000AF13460246FA710A46BA807B804FF00103FB60BA8841F6DC
:402F4000FF739A4202D14FF40053BB807A8841F6FF739A4202D14FF400537B80FB79172B1CD8FB794FEAC30303F1804303F5EC4303F10403BB60BB68BA881A80FB794FEAB7
:402F8000C30303F1804303F5EC4303F10603BB60BB687A881A804FF00003FB60FB68184607F11407BD4680BC704700BF80B485B000AF02460B46FA71BB714FF00103FB608A
:402FC000FB79172B0CD8FB794FEA031247F21003C4F20003D318BA795A724FF00003FB60FB68184607F11407BD4680BC704700BF80B485B000AFF871B9717A713B714FF0DF
:403000000103FB60FB79172B3CD8FB794FEAC30303F1804303F5EC43BA7902F07F02D1B27A794FEAC212D2B20A43D2B21A70FB794FEAC30303F1804303F5EC433A7E4FEACC
:403040000212D1B23A7902F00F02D2B20A43D2B25A70FB794FEAC30303F1804303F5EC433A7F02F00F02D2B29A70FB794FEAC30303F1804303F5EC434FF00002DA704FF02E
:403080000003FB60FB68184607F11407BD4680BC704700BF80B582B000AF4FF0FF03FB71FFF768FE0346BB7148F22413C1F6FF731B78182B20D948F22513C1F6FF731B78FE
:4030C000FB7148F22413C1F6FF731B7803F1FF33DAB248F22413C1F6FF731A70FB794FEAC30303F1804303F5F0431B78DAB248F22513C1F6FF731A70BB791846FFF73EFE04
:40310000FB79184607F10807BD4680BD80B485B000AFF871B980BA71FB704FF00103FB60FB795BB2002B27DBBB8823F47F6323F00F039BB2002B1FD1FB794FEAC30303F1AA
:40314000804303F5F043BB60BB68BA881A80FB794FEAC30303F1804303F5F043BA799A70FB794FEAC30303F1804303F5F043FA78DA704FF00003FB60FB68184607F1140733
:40318000BD4680BC704700BF80B485B000AF13460246FA710A46BA807B804FF00103FB60FB795BB2002B1CDBFB794FEAC30303F1804303F5F04303F10403BB60BB68BA88A0
:4031C0001A80FB794FEAC30303F1804303F5F04303F10603BB60BB687A881A804FF00003FB60FB68184607F11407BD4680BC704780B483B000AF0346FB7101BE07F10C070D
:40320000BD4680BC704700BF80B582B000AF78600BE048F23813C1F6FF731B681846FFF79FFD7B68A3F500437B607B68B3F5004FEFD848F23013C1F6FF731B687A6802FB9D
:4032400003F31846FFF78CFD07F10807BD4680BD80B582B000AF0346FB80FA8848F23413C1F6FF731B7803FB02F31846FFF778FD07F10807BD4680BD80B584B000AF034637
:403280003960FB714EF60853CEF200031B68FB60FB791F2B03D94FF00000FFF7A9FFFB7903F01F0303F110034FEA8303FA68D3181B68BB60FB7903F01F0303F110034FEA4F
:4032C0008303FA68D3183A681A60BB68184607F11007BD4680BD00BF80B582B000AF02460B46FA71BB71BB79072B03D94FF00000FFF77EFFFB791F2B03D94FF00000FFF747
:4033000077FFFB7903F01F0303F1604303F56443BA794FEA4212D2B21A7007F10807BD4680BD00BF80B582B000AF41F2873000F06BF841F2873000F083F8FFF71BFD034685
:40334000FB7146F29543C4F2000346F29542C4F200021278D2B242F01002D2B21A70FB791846FFF70BFD00F07BF84FF0010000F02FF807F10807BD4680BD00BF80B400AF7E
:4033800046F27243C4F2000346F27242C4F200021278D2B262F07F02D2B21A70BD4680BC704700BF80B500AF48F2B013C1F6FF731B78002B08D1FFF7B5FF48F2B013C1F620
:4033C000FF734FF001021A70FFF7D8FF80BD00BF80B483B000AF0346FB7146F28543C4F20003FA791A7007F10C07BD4680BC704780B400AF46F26543C4F200031B78DBB2A8
:403400001846BD4680BC704780B483B000AF786046F22243C4F200037A681A6007F10C07BD4680BC704700BF80B400AF46F24243C4F200031B681846BD4680BC704700BFE9
:4034400080B483B000AF786046F20243C4F200037A681A6007F10C07BD4680BC704700BF80B500AF01E0FFF7DFFFFFF7C1FF034603F00803002BF6D180BD00BF80B582B021
:4034800000AF4FF6FF7000F083F84FF6FF7000F09BF8FFF76FFC0346FB7146F29953C4F2000346F29952C4F200021278D2B242F01002D2B21A70FB791846FFF75FFC4FF077
:4034C000000000F0A3F800F0CBF84FF0020000F043F807F10807BD4680BD00BF80B400AF46F27953C4F2000346F27952C4F200021278D2B262F07F02D2B21A70BD4680BC93
:40350000704700BF80B500AF48F2B113C1F6FF731B78002B08D1FFF7B1FF48F2B113C1F6FF734FF001021A70FFF7D8FF80BD00BF80B400AF46F27953C4F2000346F279526E
:40354000C4F200021278D2B202F07F02D2B21A70BD4680BC704700BF80B483B000AF0346FB7146F28953C4F20003FA791A7007F10C07BD4680BC704780B400AF46F26953E2
:40358000C4F200031B78DBB21846BD4680BC704780B483B000AF0346FB8046F65023C4F20003FA881A8007F10C07BD4680BC704780B400AF46F69023C4F200031B889BB204
:4035C0001846BD4680BC704780B483B000AF0346FB8046F61023C4F20003FA881A8007F10C07BD4680BC704780B400AF46F20853C4F200031B7846F69023C4F200031B884B
:403600009BB21846BD4680BC704700BF80B483B000AF0346FB71FB7903F00303FB7146F27953C4F2000346F27952C4F200021278D2B222F00302D2B21A7046F27953C4F221
:40364000000346F27952C4F200021278D1B2FA790A43D2B21A7007F10C07BD4680BC704780B500AF01E0FFF7A3FFFFF785FF034603F00803002BF6D180BD00BF80B500AFC0
:4036800000F056F840F20930C0F2000000F01CF84FF0070000F02CF800F03EF880BD00BF80B582B000AF786000F042F8786800F00BF84FF0070000F01BF800F02DF807F1EE
:4036C0000807BD4680BD00BF80B485B000AF78604EF60853CEF200031B68FB60FB6803F140037A681A6007F11407BD4680BC704780B483B000AF0346FB714FF46443CEF218
:403700000003FA794FEA4212D2B21A7007F10C07BD4680BC704700BF80B400AF4FF46143CEF200034FF001021A60BD4680BC704780B400AF4EF28013CEF200034FF00102BE
:403740001A60BD4680BC704780B400AF4EF28023CEF200034FF001021A60BD4680BC704780B500AF00F056F840F2F120C0F2000000F01CF84FF0070000F02CF800F03EF803
:4037800080BD00BF80B582B000AF786000F042F8786800F00BF84FF0070000F01BF800F02DF807F10807BD4680BD00BF80B485B000AF78604EF60853CEF200031B68FB608E
:4037C000FB6803F14C037A681A6007F11407BD4680BC704780B483B000AF0346FB714EF20343CEF20003FA794FEA4212D2B21A7007F10C07BD4680BC704700BF80B400AFF9
:403800004FF46143CEF200034FF008021A60BD4680BC704780B400AF4EF28013CEF200034FF008021A60BD4680BC704780B400AF4EF28023CEF200034FF008021A60BD46A4
:4038400080BC704780F0004002E000BF81F0004142001FBF5FEA410392EA030F7FEA226C7FEA236C6AD04FEA1262D2EB1363C1BFD218414048404140B8BF5B42192B88BF7B
:40388000704710F0004F40F4000020F07F4018BF404211F0004F41F4000121F07F4118BF494292EA030F3FD0A2F1010241FA03FC10EB0C00C3F1200301FA03F100F0004380
:4038C00002D5494260EB4000B0F5000F13D3B0F1807F06D340084FEA310102F10102FE2A51D2B1F1004F40EBC25008BF20F0010040EA03007047490040EB000010F4000F63
:40390000A2F10102EDD1B0FA80FCACF1080CB2EB0C0200FA0CF0AABF00EBC25052421843BCBFD0401843704792F0000F81F4000106BF80F400000132013BB5E74FEA410301
:403940007FEA226C18BF7FEA236C21D092EA030F04D092F0000F08BF0846704790EA010F1CBF0020704712F07F4F04D1400028BF40F00040704712F100723CBF00F500003D
:40398000704700F0004343F0FE4040F4000070477FEA226216BF08467FEA23630146420206BF5FEA412390EA010F40F4800070474FF0000304E000BF10F0004348BF40421F
:4039C0005FEA000C08BF704743F0964301464FF000001CE050EA010208BF70474FF000030AE000BF50EA010208BF704711F0004302D5404261EB41015FEA010C02BF8446F9
:403A00000146002043F0B64308BFA3F18053A3F50003BCFA8CF2083AA3EBC25310DB01FA02FC634400FA02FCC2F12002BCF1004F20FA02F243EB020008BF20F001007047F0
:403A400002F1200201FA02FCC2F1200250EA4C0021FA02F243EB020008BF20EADC7070474FF0FF0C1CEAD0521EBF1CEAD15392EA0C0F93EA0C0F6FD01A4480EA010C4002CC
:403A800018BF5FEA41211ED04FF0006343EA501043EA5111A0FB01310CF00040B1F5000F3EBF490041EAD3715B0040EA010062F17F02FD2A1DD8B3F1004F40EBC25008BFF8
:403AC00020F00100704790F0000F0CF0004C08BF49024CEA502040EA51207F3AC2BFD2F1FF0340EAC250704740F400004FF00003013A5DDC12F1190FDCBF00F0004070474B
:403B0000C2F10002410021FA02F1C2F1200200FA02FC5FEA310040F1000053EA4C0308BF20EADC70704792F0000F00F0004C02BF400010F4000F013AF9D040EA0C0093F00B
:403B4000000F01F0004C02BF490011F4000F013BF9D041EA0C018FE70CEAD15392EA0C0F18BF93EA0C0F0AD030F0004C18BF31F0004CD8D180EA010000F00040704790F003
:403B8000000F17BF90F0004F084691F0000F91F0004F14D092EA0C0F01D142020FD193EA0C0F03D14B0218BF084608D180EA010000F0004040F0FE4040F40000704740F057
:403BC000FE4040F4400070474FF0FF0C1CEAD0521EBF1CEAD15392EA0C0F93EA0C0F69D0A2EB030280EA010C49024FEA402037D04FF0805343EA111143EA10130CF000409A
:403C00008B4238BF5B0042F17D024FF4000C8B4224BF5B1A40EA0C00B3EB510F24BFA3EB510340EA5C00B3EB910F24BFA3EB910340EA9C00B3EBD10F24BFA3EBD10340EACA
:403C4000DC001B0118BF5FEA1C1CE0D1FD2A3FF650AF8B4240EBC25008BF20F0010070470CF0004C4CEA50207F32C2BFD2F1FF0340EAC250704740F400004FF00003013AC6
:403C800037E792F0000F00F0004C02BF400010F4000F013AF9D040EA0C0093F0000F01F0004C02BF490011F4000F013BF9D041EA0C0195E70CEAD15392EA0C0F08D1420257
:403CC0007FF47DAF93EA0C0F7FF470AF084676E793EA0C0F04D14B023FF44CAF08466EE730F0004C18BF31F0004CCAD130F000427FF45CAF31F000437FF43CAF5FE700BFD3
:403D000042000ED2B2F1FE4F0BD34FF09E03B3EB126209D44FEA002343F0004323FA02F070474FF00000704712F1610F01D1420202D14FF0FF3070474FF00000704700BF00
:403D400038B50E4D0E4B0024E81A8510AC4205D00B4951F8242090470134F7E700F0D0F80849094A541AA5100024AC4205D0054B53F8240080470134F7E738BD0C3F00001A
:403D80000C3F00000C3F0000143F000010B50023934203D0CC5CC4540133F9E710BD82180346934202D003F8011BFAE77047000000000000035B00402443004040000000AB
:403DC000940200008C020000840200007C020000740200007402000074020000740200008881FF1F8881FF1F8881FF1F8881FF1F8881FF1F8881FF1F8881FF1F8881FF1F8B
:403E00008881FF1F8881FF1F08000048100000481800004828060048480600482000004828000048A800004828010048A801004828020048A802004828030048A80300482C
:403E400028040048A804004828050048A8050048680600487806004888060048080700488807004808080048880800480809004888090048080A0048880A0048080B0048FF
:403E8000880B0048080C0048880C0048080D0048880D0048080E0048880E0048080F0048880F00480810004888100048081100488811004808120048881200480813004812
:403EC0008813004808140048881400480815004888150048081600488816004808170048881700483031323334353637383941424344454646640040166400409664004033
:403F0000F8B500BFF8BC08BC9E467047C102000091060000F8B500BFF8BC08BC9E4670479D020000383F00000881FF1F380000008000000000000000000000006400000050
:403F400094110429AC0D581B3A009411AC0D000001FF0000807F00000100000000366E01C05D0000180000000000E02E0000000000000000000000000000000000000000C3
:403F80000000000000000000000000000000000000000000000000000000000000000000000000000000000000000000000000000000000000000000000000000000000001
:403FC00000000000000000000000000000000000000000000000000000000000000000000000000000000000000000000000000000000000000000000000000000000000C1
:404000000000000000000000000000000000000000000000000000000000000000000000000000000000000000000000000000000000000000000000000000000000000080
:404040000000000000000000000000000000000000000000000000000000000000000000000000000000000000000000000000000000000000000000000000000000000040
:020000040003F7
:0200000480007A
:400000000200000000000000000000000400000000400000800000000000000004000000FF00000000000000000000000000000100000000010000000000000000000000F5
:4000400000000000040000020002000000000000000002000000040000030000010006000000000000001000420000000000000000FFFFFF00000001180080000000000080
:4000800004040404925500014000400040408000800080008000800000000000000000000000000000000000000002000000000000000000000000000300000000000000C3
:4000C00000000000000000000000000000000000000000000000010000000000000003000000000000000000520000000000000000FFFFFF0083030118000000010000000D
:400100000400040402150001400040004040800080008000800080000000000000000000000000000000000000000000000000000000000000000003000000000000000216
:4001400000000000000000010000000000000000000001000002010100000003010000000000000000000000560000000000000000FFFFFF0083030118000000010004007E
:400180000404040425250001400040004040800080008000800080000000000000000000000000000000000000000000000000000000000000000000000001000000000063
:4001C000000000000000000000010000000000000000010000000000010000000000000100000000000001405200000000EC000213FFFFFF008303011800000001000000CA
:4002000004040404005500014000400040408000800080008000800000000000000000000000000000000000000018000100020300000600000000000000000008000002AA
:4002400000031800000010000100040300000100180000010000010000000000070318000000000000000000060000660000000000FFFFFF00200000000001000000000084
:400280000D0D0404332200014040406C000000000000000000000000000000000000000000000000000000000000000000000000000000000000000000000000000000009A
:4002C00000000100000002000100000001000000000002010000000002000100000000012800000000001100060000660001000213FFFFFF0F2F0F000000230001000000C9
:4003000004040404222200014040406C000000000000000000000000000000000000000000000000000000000000030203070400010002000000000000000000040002051B
:4003400000000803000000000000010000000807070000000000000000000804070300000000000000000000310200000000000000FFFFFF00000000000000000000000015
:400380000E0E0E003303000140A8402040A840204020108040A840A8000000000000000000000000000000001D000209000000001402080500000000000000000B0D141005
:4003C000020F04100000000E00001000000001001F0100020000000000000000001F1F000000002000000000310600000090000002FFFFFF0F0F0F00000000000000000046
:400400000D0D0D003303000140A8402040A840204020108040A840A80000000000000000000000000000000000000100020000000000000202000001000000000000010005
:400440000003000002000000000002010000000302000000000000000200000001000003000000000000000000000000000000000000000000000000000000000000022C3B
:400480000D0D000D33300001000000000000000000000000000000000000000000000000000000000000000000100000000800040000000100000103000000000000000888
:4004C00001000010000000000000000200000003000300000000000401000010000C00030200000000000000640300000002000611FFFFFFEA040004080000000000000046
:400500000E0E0E0033030001404080006040A000105090502000A0080000000000000000000000000000000000001E010000000000000000000000000000000100000000F2
:40054000020100000400010008000100000000010E00000000000000000001010E0010000000000800000400250006000000000000FFFFFF000000011800000000000000EE
:40058000040404004404000140004000404080008000800080008000000000000000000000000000000000003DFF020000000000003000C300003DFF083004C900002000D4
:4005C00000003DFF005500A00000000000000000045008AE00001000020F3C0001F0010000000802000050002500010000EC002023FFFFFF0083030118008300030004009C
:40060000040404044444000140004000404080008000800080008000000000000000000000000000000000000000000000000000000000000000000000000000010D000093
:400640000000000000000000000000000000000000000000000000000000000000000000000F000000000000180000000000000000000800100000002E010000000000000C
:4006800026012C000000000000000000000000000000000000000000000000000000000000000000000000000000000000000000000000000000000040000000000800009F
:4006C00000000000000000000000000000000000000000000000000000000000000000000000000000000000000000000000000000000100080000000000000000000000F1
:400700000000000000000000000000000000000000000000400000000000000000000000000000000000000000000000000000000000000000000000000000000000000079
:400740000000000000000000000000000000000000000000000000000000000000000000000000000000000004000000000000000000000000000000000000000000000075
:40078000000000000000000000000000000000000000000000000000040000000000000000000000000000000000000000080000000000000000000000000000000000002D
:4007C00000000000000000000000010000000000000000000000000000000000000000000200000000000000000000000000000000000000000000000000000000000000F6
:4008000000000000000000000000000000000000000000000000000004000000000000000000000000000000000000000008000000000000000000000000000004000000A8
:400840000000000000000000000000000000000000000000000000000000000000000000000000000000000000000000000000000000000002000000000000000000000076
:400880000000000000000000000000000000000000000000000000000000000000000000000000000000000000000000000000000000000000000000000000000000000038
:4008C00000000000000000000000000000080000000000000000000000000000000000000000000000000000000000000000000000000000000000000000000000000000F0
:4009000000000000000000000000000000000000000000000000000000000000000000000000000000000000000000000000000000000000000000000000000000000000B7
:400940000000000000000000000000000000000000000000000000000100000000000000000000000000000000000000000000000000000000000000000000000000000076
:400980000000000000000000000000000000000000000000000000000000000000000000000000000000000000000000000000000000000000000000000000000000000037
:4009C00000000000000000000000000000000000000000000000000000000000000000000000000000000000000000000000000000000000000000000000000000000000F7
:400A000000000000000200000000000000000000000000000001000000000000000000000000000000000000000000000000000000000000000000000000000000000000B3
:400A4000000000000000000000000000000000000000000000000000000000000000000000000000000001000800000000000000000000000000000000000000000000006D
:400A800000000000000000000000000000000000000000000000000000000000000000000000000000000000000000000000000000000000000000001180020000000000A3
:400AC0000000000000000000000000000000000000000000000000000000000000000000000000000000000000000000000000000000800010000000000000000000000066
:400B0000000000000000000001000028010000040000100400000028A0000020000100280000043C0100000000041020000000040000001000000008000010040000006459
:400B4000010800000001002001001444000000440000000080010020000000000000000000000000000000000000000000000000000000000000000000000000000000000D
:400B800004000000002000000000000000000000400000000000000000000004000014000400000840000060201000000000001000000000000000000000000000000000CD
:400BC00000000000000000005E0066007E000000000022007600A3005E002000000000000000000000002200800000000000000000008000100000000000000000000000C8
:400C000000000000000000004200000000008000002210000020010008400000000200204100101420200110000210000000002000000004000000100022400000000220B5
:400C40004010020000000100012000000020000000050200000002200001020000000000008520000000000080000000000000000850800000000000000080000000000037
:400C800000000000000000008000000000000000000000000000000000000000000000000000000000000000000000000000000000000000000000000000000000000000B4
:400CC00000000000000000001900CE005300000000004400AD008D002C00380000000F000100000000000000000000000000000000000000000000000000000000000000C8
:400D00000000000000000000000000020800004100000004000002200000000040000010400000000000002200440804004000000012001200020400002400000010002082
:400D4000108100041080100040040000004001002804000000000000080000000000000000000000000000000000000000000100000000000400021100000000000000006D
:400D800004000000002000000000002000010800000000000000000000000000080014000402000800000061003000000000000000000000400000200000000000000000CB
:400DC0000000000000000000B100A200500000000000CF0026003F000300040000000000800000000000220000000000000001000000000000000000000000000000000072
:400E000000000000000000000000000000000000000000000000000000000000000000000000000000000000000000000000000000000000000000000000000000000000B2
:400E40000000000000000000000000000000000000000000000000000000000000000000000000000000000000000000000000000000000040000000000000000000000032
:400E80000000000000000000000000000812004000A0000000001500A8000000004000250000401400100120008000000000000400100000000210000000000000000024C7
:400EC00000000000000004000000000004300000A00008000000080000000800000000004000000000000000000000000000000008008000004000000020000800000000D2
:400F0000000000000020000000000004000000000000000000000000000000000000C000000000000000000000000000000000100000008000000000000000000400000039
:400F400000000000000000007000E300FE0000000000A400600040000000240000000800000000000000200000000000000000000000000000000000000000000000000090
:400F80000000000000000000000000000000000000000000020000000A0000000000040004000000000080000008000000000001004000000000008000084000000000008C
:400FC000400000000000000000000000000004000A00000002050000000000000800040000004000000580004000000000000000000000000000000000000000000000008B
:4010000000000000000000000000000000000000000000010000000000000000000000000040000000000400020000000000001000000000000000200000000040000000F9
:4010400000000000000000000000100043000000000088000A00080020001C000000D80001000000000000000000000000002000000000001000000000000000000000003E
:4010800000000000000000000000004080000000000000800000020000400000000000600040000000000260000000000000004000000000000000400000000000000040EC
:4010C0000000000000000008080000000800440002000000000000000000000000000000004000000000000000000000000000000000000000000000000000000200400010
:4011000000000000000000000000000000000000000000000000000000400000000000000000002000000000000000040000001000400004000000200000000000000000D7
:40114000000000000000000088008800C10000000000800010004000A40008000000080000000000000000000000000000000000000000000000000000000000000000001A
:40118000000000000000000000000000000000000000000000000000000000000000000000000000000000000000000000000000000000000000000000000000000000002F
:4011C00000000000000000000000000000000000000000000000000000000000000000000000000000000000100000000000000000000000000000000000000000000000DF
:40120000000000000000000000000000000000000000000000000010000000000000000000000000000000000000000000000000000000000000000000000000000000009E
:40124000000000000000000000000000000000000000000000000000000000000000000000000000000000000000000000000000000000000000000000000000000000006E
:401280000000000000000000000000000008000000000000000000000000000000000000000000000000000000000000000000000000000000000000000000000000000026
:4012C000000000000000000000000000000000000000000000000000000080000000000000000000000000000000000000000000000000000000000000000000000000006E
:40130000000000000000000000000000000000000008000000000000000000000000000000000000000000000000800000000000000000000000000000080000001000000D
:40134000000000000000000020000000000000000000000000000000000000002000000000000000000000000000000000000000000000000000000000000000000000002D
:40138000000000000000000000000000000000000000000000000000000000000000000000000000000000000000000000100000000000000000000000000000000000001D
:4013C00000000000000000000000000000000000000000000000000000000000000000000000000000000000000000000000000000000000000000000000000000000000ED
:4014000000000000000000000040400000000000000000000000000000000000004080000000000000080000000080000000000000000000000000000000000000000000E4
:4014400000000000000000000000000000000000200000000000000000000000000000000000000000000000000000000000A00000000000000000000000000000000000AC
:4014800000000000000000000000800000000000000000000000000000000000004080000000000000080000000000000000000000000020000000000000000000000000C4
:4014C00000000000000000000000000000000000000000000000000000000000000000000000000000000000000000000000200000000000200000000000000000000000AC
:40150000000000000000000000000020000000000000000000000000000000000000000000000000000000000000000000000000000000000000000000000000000000008B
:40154000000000000000000000000000000000000000000000000000000000000000000000000000000000000000000000000000000000000000000000000000000000006B
:40158000000000000000000000000000000000000100000000000000000000000040800000000000010800000000000000000000000000000000100000000000000002004F
:4015C00000000000000000001000000000000000000000000000000000000000000000000000000000000000000000000000000000000000000010000000000000000000CB
:4016000000000000000000000000020000000000000000000000000000000000000000000000000000000000000000000000000000000000000000000000000000000000A8
:40164000000000000000000000000000000000000000000000000000000000000000000000000000000000000000000000000000000000000000000000000000000000006A
:4016800000000000000000000000000000000000000000000000000000000000004080000000000001080000000000000000100000008000000000040000000000000000CD
:4016C000000000000000000040000000000000000000000000000000000000000000000000000000000000000000000000000000400000002000000000000000000000004A
:4017000000000000000000000000000000000000000000000000000000008004000000000000000000000000000000000000000000000000000000000100400000081000CC
:401740000000000000400000000000000000000000000000000000000000000000000000000000000000000000000000000000000000000000000000000000000000000029
:401780000000000000000000000000000000000000000000000000000000000000000000000000000000000000000000000000000000000000000000000000000000000029
:4017C0000000000000000000000000001000000000000000F000200000000000000000000000000000000000000000000000000000000000000000000000000000000000C9
:401800000000000000000000040000000000010004000000000000008040400040000000007F7F0000000000020000030100010000000000950018010000000000000000AC
:401840000000000000000000000000000000000000000000000000000000000000000000000000000000000000000000000000000000000000000000000000000000000068
:401880000000000000000000000000000000000000000000000000000000000000000000000000000000000000000000000000000000000000000000000000000000000028
:4018C00000000000000000000000000000000000000000000000000000000000000000000000000000000000000000000000000000000000000000000000000000000000E8
:4019000000000000000000000000000000000000000000000000000000000000000000000000000000000000000000000000000000000000000000000000000000000000A7
:0200000490006A
:0400000000004005B7
:0200000490105A
:04000000BC90ACAF55
:0200000490303A
:020000009FA6B9
:0200000490402A
:4000000000000000000000000000000000000000000000000000000000000000000000000000000000000000000000000000000000000000000000000000000000000000C0
:400040000000000000000000000000000000000000000000000000000000000000000000000000000000000000000000000000000000000000000000000000000000000080
:400080000000000000000000000000000000000000000000000000000000000000000000000000000000000000000000000000000000000000000000000000000000000040
:4000C0000000000000000000000000000000000000000000000000000000000000000000000000000000000000000000000000000000000000000000000000000000000000
:0200000490501A
:0C00000000012E12306900012E2DD00FDF
:00000001FF