:400000000080002011000000390500003905000080B500AF47F2BC63C4F2000344F2FA62C4F2000212681A6000F08AFA08000223000008760800032300001076080004235E
:400040000000287608000523000030760500062300002070050007230000307005000823000060700500FE230000707030000A220000405110000B220000C0511000FE220E
:400080000000F05100020D220000000080010E220000000C00020F220000000E8001102200000018800111220000001A800012220000004180001322000000428000142295
:4000C00000000043800015220000004580001622000000478000FE220000004D0700182300000852070019230000185220001A23000070642000FE230000706508001C23FE
:400100000000005180001D230000000280001E230000800280001F2300000004800020230000800480002123000000068000222300008006800023230000000880002423B2
:4001400000008008800025230000000A800026230000800A80002723000000148000282300008014800029230000001680002A230000801610002B230000105010002C2333
:400180000000005080002D230000804D80002E230000004C80002F230000804C800030230000804780003123000000468000322300008046800033230000804580003423D6
:4001C000000000448000352300008044800036230000801B80003723000000158000382300008015800039230000801980003A230000001780003B230000801780003C238F
:400200000000000980003D230000800980003E230000000780003F2300008007800040230000000B800041230000800B800042230000000580004323000080058000442362
:400240000000800D8000452300000003800046230000800380004723000000498000482300008049800049230000004880004A230000804880004B230000804380004C232A
:400280000000804280004D230000804180004E23000000408000FE2300008040010000000100000001000000004801400100000000480040010000000020014001000000C1
:4002C0000020004010B5054C237833B9044810B10448AFF300800121217010BD4081FF1F00000000383C000008B5064B1BB106480649AFF300800648016811B1054A02B19F
:40030000904708BD00000000383C00004481FF1F0881FF1F0000000080B500AF03F0CAF903F076F803F01AF803F05CF880BD00BF80B500AF03F04CF903F0C6F8024648F291
:400340005C13C1F6FF731A6003F062F880BD00BF80B586B000AF62B602F094FF40F21930C0F2000003F052F903F03EF940F23130C0F2000003F0D8F803F0C4F841F2941345
:40038000FB8262B600F072FFFB8A4FF00100194601F0A0F84FF0010001F072F80346BB8201F040FC01F05CFC00E000BF4FF000004FF0000100F0FAFC48F25C13C1F6FF732D
:4003C0001B684FEA53039BB2184600F039FF48F25C13C1F6FF731A6848F26013C1F6FF731B689A421AD948F25C13C1F6FF731A6848F26013C1F6FF731A604FF000004FF07A
:40040000080100F0D3FC48F26013C1F6FF731B684FEA53039BB2184600F012FF48F25C13C1F6FF731A6848F20C13C1F6FF731B689A421AD248F25C13C1F6FF731A6848F2B1
:400440000C13C1F6FF731A604FF001004FF0080100F0ACFC48F20C13C1F6FF731B684FEA53039BB2184600F0EBFE4FF0640002F03BFE01F0E9F90346002B96D04FF00100C7
:4004800001F002FC0346002B8FD001F027FC03469BB203F101037B827B8A184603F0CCF9034618464FF0874103F0D2FA034618464FF44041C4F2DA5103F016FA034618465D
:4004C0004FF48041C4F21C5103F006F90346FB607B8A184603F0B0F9034618464FF0874103F0B6FA034618464FF43041C4F21A6103F0FAF9034618464FF00001C4F2482177
:4005000003F0EAF80346BB60B86803F03DFB0346BB82F86803F038FB0346FB82FB8A4FF00100194600F0D6FFBB8A4FF00100194600F076FF39E700BF80B400AFFEE700BFCD
:4005400080B586B000AF40F20103C0F200037B6143F6C053C0F200033B6140F20103C0F200037B6143F6C053C0F200033B613BE03B691B68FB603B695B68BB603B699B68D3
:400580003B604FF000037B600FE0FB681A68BB681A60BB6803F10403BB60FB6803F10403FB607B6803F104037B607A683B689A42EBD13B69DB683B604FF000037B600BE0C0
:4005C000BB684FF000021A60BB6803F10403BB607B6803F104037B607A683B689A42EFD13B6903F110033B617B69002B0CBF00230123DBB27A6902F1FF327A61002BB7D180
:4006000003F0E2FAFFF7A4FEFEE700BF80B582B000AF4EF60C53CEF200034FF48062C0F2FA521A604EF61453CEF200034EF61452CEF20002126842F400721A604FF00003DE
:400640007B6019E07B68032B07D840F20003C0F200037A6853F8223003E040F23953C0F2000348F20002C1F6FF72796842F821307B6803F101037B607B682F2BE2D947F240
:40068000BC63C4F200031B78DAB248F20413C1F6FF731A704EF60853CEF2000348F20002C1F6FF721A6000F0C3FA02F0DDFA48F20013C1F6FF734FF000021A6007F1080751
:4006C000BD4680BD80B582B000AF7860396078684FF000013A6803F0A6FA07F10807BD4680BD00BF80B584B000AFF860B9607A60F868B9687A6803F08DFA07F11007BD4686
:4007000080BD00BF80B483B000AF0346FB71FEE780B582B000AF48F26813C1F6FF734FF000021A604FF4EC43C4F200034FF010021A7047F21003C4F200034FF001021A7087
:4007400047F21903C4F200034FF000021A704FF4F043C4F200034FF41C721A8047F60203C4F200034FF001021A7047F60303C4F200034FF003021A7047F60403C4F2000378
:4007800040F22C02C0F2000292B21A8047F60603C4F2000347F608021A8047F20463C4F200034FF000021A8047F20663C4F200034FF480421A8047F22903C4F200034FF0DC
:4007C00009021A7047F23903C4F200034FF00C021A7047F26903C4F200034FF017021A7047F27903C4F200034FF01B021A70BFF35F8F47F21403C4F200034FF001021A7056
:40080000BFF35F8F00BF4FF4F043C4F200031B889BB2002BF7D14FF000037B6015E07B684FEAC30247F60C03C4F20003D3181A4643F64843C0F20003796853F821309BB2C1
:4008400013807B6803F101037B607B684D2BE6D9BFF35F8F47F21403C4F200034FF001021A70BFF35F8F00BF47F21803C4F200031B78DBB203F00103002BF5D100BF47F234
:400880002803C4F200031B78DBB203F00103002BF5D100BF47F23803C4F200031B78DBB203F00103002BF5D100BF47F26803C4F200031B78DBB203F00103002BF5D100BF75
:4008C00047F27803C4F200031B78DBB203F00103002BF5D145F21010C4F201004FF090414FF00602FFF7FEFE07F10807BD4680BD80B582B000AF4FF48143C4F200034FF0D0
:4009000000021A8044F28203C4F200034FF050021A7044F28403C4F200034FF000021A8044F28603C4F200034FF058021A7044F28803C4F200034FF001021A8044F28A0387
:40094000C4F200034FF018021A7044F28C03C4F200034FF001021A8044F28E03C4F200034FF018021A7044F29003C4F200034FF005021A8044F29203C4F200034FF01902DE
:400980001A7044F29403C4F200034FF01D021A8044F29603C4F200034FF019021A704FF48240C4F2000041F62411C4F600014FF00402FFF797FE4FF48643C4F200034FF00D
:4009C00002021A704FF040234FF008021A704FF48443C4F200034FF003021A7044F2A163C4F200034FF48472C4F600121278D2B21A7044F22223C4F200034FF008021A80BC
:400A000044F22023C4F2000341F251221A804FF00003FB704FF019037B6019E0FB784FEA4303DAB244F22523C4F200031B78DBB203F00103DBB21343DBB203F00303FB70C8
:400A40004FF4F07002F0FCF87B6803F1FF337B607B68002B02D0FB78032BDFD17B68002B03D14FF00300FFF74DFE44F20403C4F200034FF480721A8044F20403C4F20003B8
:400A80004FF007021A7044F20603C4F200034FF000021A7044F20803C4F200034FF048021A7044F20403C4F200034FF000021A7044F20103C4F200034FF002021A7044F2DD
:400AC0000B03C4F200034FF004021A7044F2A233C4F2000344F2A232C4F200021278D2B242F03F02D2B21A7044F2A133C4F2000344F2A132C4F200021278D2B242F0010284
:400B0000D2B21A7044F2A033C4F2000344F2A032C4F200021278D2B262F07F02D2B21A7007F10807BD4680BD80B483B000AF40F2CF13C4F600131B78FB7145F66E03C4F297
:400B40000003FA7902F00702D2B21A7045F66F03C4F20003FA794FEA1212D2B21A7045F20D13C4F200034FF001021A704FF4B643C4F200034FF010021A7045F67603C4F29C
:400B800000034FF044021A7007F10C07BD4680BC704700BF80B483B000AF0346FB71FB79012B17D8FA7943F63C43C0F2000353F82220F97943F63C43C0F2000353F8213021
:400BC0001978F87943F64443C0F200031B5C0B43DBB2137007F10C07BD4680BC704700BF80B483B000AF0346FB71FB79012B1AD8FA7943F63C43C0F2000353F82220F979AD
:400C000043F63C43C0F2000353F821301978F87943F64443C0F200031B5C6FEA0303DBB20B40DBB2137007F10C07BD4680BC704780B500AF72B644F2E863C4F2000344F2F9
:400C4000E862C4F200021278D2B242F00402D2B21A70FFF75DFD45F68303C4F200034FF00A021A704FF4EC40C4F200004FF00401FFF728FD45F20303C4F2010345F20302C8
:400C8000C4F201021278D2B242F00202D2B21A7045F21303C4F2010345F21302C4F201021278D2B242F00202D2B21A7044F2A033C4F2000344F2A032C4F200021278D2B23B
:400CC00042F04002D2B21A7044F2C233C4F2000344F2C232C4F200021278D2B242F01002D2B21A7045F20210C4F200004FF4C851C4F600014FF00802FFF7F4FC45F21210AE
:400D0000C4F2000041F60811C4F600014FF00802FFF7E8FC45F22210C4F2000041F61011C4F600014FF00802FFF7DCFC45F23010C4F2000041F61811C4F600014FF00A02F3
:400D4000FFF7D0FC44F22233C4F2000344F22232C4F200021278D2B242F00802D2B21A704FF49043C4F200034FF001021A70FFF7BFFD4FF49043C4F200034FF081021A706B
:400D80004FF00403C4F208034FF001021A70FFF7CBFE44F2B030C4F2000044F2A031C4F200014FF00E02FFF79DFC80BD80B582B000AF02460B46FA71BB71FB79032B2BD811
:400DC00001A252F823F000BFD90D0000E90D0000F90D0000090E0000BB79A3F18003DBB2184600F049F818E0BB79A3F14003DBB2184600F041F810E0BB79A3F16C03DBB209
:400E0000184600F039F808E0BB79A3F12C03DBB2184600F031F800E000BF07F10807BD4680BD00BF80B582B000AF0346FB71FB79184600F005F807F10807BD4680BD00BF1B
:400E400080B584B000AF0346FB7100F031F8FB794FEA1313FB73FB7B184600F02DF9FB7903F00F03FB73FB7B184600F025F907F11007BD4680BD00BF80B584B000AF034629
:400E8000FB7100F015F8FB794FEA1313FB73FB7B184600F06BF9FB7903F00F03FB73FB7B184600F063F907F11007BD4680BD00BF80B582B000AF45F22013C4F2000345F2DB
:400EC0002012C4F200021278D2B222F07F02D2B21A7045F22213C4F200031B78DBB223F00F03FB7145F22213C4F20003FA7942F00F02D2B21A7045F22313C4F200031B78E1
:400F0000DBB223F00F03FB7145F22313C4F20003FA791A7045F22413C4F200031B78DBB223F00F03FB7145F22413C4F20003FA791A7045F22013C4F2000345F22012C4F232
:400F400000021278D2B222F02002D2B21A7045F22013C4F2000345F22012C4F200021278D2B242F04002D2B21A704FF0000002F0DFF845F22013C4F2000345F22012C4F201
:400F800000021278D2B242F01002D2B21A704FF0010002F0CDF845F22113C4F200031B78FB7145F22013C4F2000345F22012C4F200021278D2B222F01002D2B21A704FF0F2
:400FC000000002F0B5F8FB7903F00803FB7145F22013C4F2000345F22012C4F200021278D2B242F01002D2B21A704FF0010002F09FF845F22013C4F2000345F22012C4F2C5
:4010000000021278D2B222F01002D2B21A70FB79002BAAD145F22013C4F2000345F22012C4F200021278D2B222F04002D2B21A7045F22013C4F2000345F22012C4F200025C
:401040001278D2B222F07F02D2B21A7045F22213C4F2000345F22212C4F200021278D2B222F00F02D2B21A7045F22313C4F200031B78DBB223F00F03FB7145F22313C4F240
:401080000003FA7942F00F02D2B21A7045F22413C4F200031B78DBB223F00F03FB7145F22413C4F20003FA7942F00F02D2B21A7007F10807BD4680BD80B582B000AF034600
:4010C000FB7145F22013C4F2000345F22012C4F200021278D2B242F02002D2B21A7045F22013C4F2000345F22012C4F200021278D2B222F04002D2B21A704FF0000002F0EB
:4011000017F845F22013C4F2000345F22012C4F200021278D2B222F00F02D2B21A7045F22013C4F2000345F22012C4F200021278D1B2FA790A43D2B242F01002D2B21A7036
:401140004FF0010001F0F4FF45F22013C4F2000345F22012C4F200021278D2B222F01002D2B21A7007F10807BD4680BD80B582B000AF0346FB7145F22013C4F2000345F25B
:401180002012C4F200021278D2B222F06002D2B21A7045F22013C4F2000345F22012C4F200021278D2B222F00F02D2B21A7045F22013C4F2000345F22012C4F20002127864
:4011C000D1B2FA790A43D2B242F01002D2B21A704FF0010001F0ACFF45F22013C4F2000345F22012C4F200021278D2B222F01002D2B21A7007F10807BD4680BD80B582B0C8
:4012000000AF0346FB71FB794FEA1313DBB21A4643F68053C0F200039B5C1846FFF702FEFB7903F00F0243F68053C0F200039B5C1846FFF7F7FD07F10807BD4680BD00BF00
:4012400080B582B000AF0346FB80FB884FEA13239BB2DBB21846FFF7D1FFFB88DBB21846FFF7CCFF07F10807BD4680BD80B500AF48F27013C1F6FF731B78002B08D100F0DD
:401280000BF848F27013C1F6FF734FF001021A7000F086F880BD00BF80B582B000AF00F005FA4FF00003FB7130E0FA7943F69453C0F2000353F832304FF470721A8001F0A7
:4012C000C9FC0346BB71FB7943F69452C0F200024FEAC303D3185B681946FB7943F69452C0F200024FEAC303D3185B681B889BB243F4407343F003039BB20B80BB791846F0
:4013000001F0ACFCFB7903F10103FB71FB79002BCBD04FF00003FB7119E0FB7903F10103D8B2F97948F21012C1F6FF720B464FEAC3035B1A4FEA4303D31803F108035B885E
:40134000194600F0C7F8FB7903F10103FB71FB79002BE2D001F07EFC0346BB7146F29443C4F2000346F29442C4F200021278D2B242F02002D2B21A70BB79184601F06EFC6B
:4013800046F22343C4F200034FF03C021A704FF0010000F033F807F10807BD4680BD00BF80B582B000AF46F27643C4F200034FF023021A7001F04EFC0346FB7146F29643BF
:4013C000C4F2000346F29642C4F200021278D2B242F01002D2B21A7048F27113C1F6FF731B7818464FF0010101F076FCFB79184601F034FC07F10807BD4680BD80B483B0EF
:4014000000AF0346FB8046F27343C4F20003FA88D2B21A7007F10C07BD4680BC704700BF80B485B000AF02460B46FA71BB80FB79012B20D8BA8813464FEA03139B1A4FEA7B
:4014400083131A4641F25973CDF2B713A3FB02134FEA5333FB60FB68B3F5707F0BD8FB7903F1FF3243F69053C0F2000353F82230FA6892B21A8007F11407BD4680BC7047F4
:4014800080B485B000AF0346FB714FF00003FB81FB79012B17D8FB7903F1FF3243F69053C0F2000353F822301B889BB242F2107202FB03F248F68903C8F68803A3FB0213AD
:4014C0004FEA5323FB81FB89184607F11407BD4680BC7047B0B584B000AF02460B46FA71BB80FB79012B00F2AF80FB79184600F0AFF803467B81FB7903F1FF3148F21012EC
:40150000C1F6FF720B464FEAC3035B1A4FEA4303D3181B88BA889A4248D2FB7903F1FF3148F21012C1F6FF720B464FEAC3035B1A4FEA4303D3189B881846FB7903F1FF3115
:4015400048F21012C1F6FF720B464FEAC3035B1A4FEA4303D31803F108031B881C46FB7903F1FF3148F21012C1F6FF720B464FEAC3035B1A4FEA4303D3181B881A46BB8823
:40158000D31A03FB04F248F21F53C5F2EB13A3FB02134FEA5313C31AFB60FA6842F210739A424AD94FF00003FB6046E0FB7903F1FF3148F21012C1F6FF720B464FEAC30318
:4015C0005B1A4FEA4303D3189B881846FB7903F1FF3148F21012C1F6FF720B464FEAC3035B1A4FEA4303D31803F108031B881C46BD88FB7903F1FF3148F21012C1F6FF72DB
:401600000B464FEAC3035B1A4FEA4303D3181B88EB1A03FB04F248F21F53C5F2EB13A3FB02134FEA5313C318FB60FA6842F210739A4202D942F21073FB60FB689BB2FA79F1
:4016400010461946FFF7ECFE07F11007BD46B0BD80B485B000AF0346FB714FF00003FB81FB79012B1BD8FB7903F1FF3248F29013C1F6FF7333F81230002B10D0FB7903F1B9
:40168000FF3248F29013C1F6FF7333F812301A464CF28033C0F2C913B3FBF2F3FB81FB89184607F11407BD4680BC704790B583B000AF48F29013C1F6FF734FEA13439BB2A4
:4016C0004FF002004FF001014FF4804200F08AF803461A4648F27113C1F6FF731A704FF00003FB710DE0FC7901F044FC03461A4648F27413C1F6FF731A55FB7903F1010328
:40170000FB71FB79002BEED04FF00003FB7134E0FB79C3F10003BB71BB79002B13D1BA7948F27413C1F6FF739A5C48F27413C1F6FF731B7810464FF002011A464FF00603B4
:4017400001F054FC15E0BA7948F27413C1F6FF739A5CBB7903F1FF3148F27413C1F6FF735B5C10464FF002011A464FF0020301F03DFCFB7903F10103FB71FB79002BC7D0B3
:401780004FF00003FB7118E0FA7948F27413C1F6FF739A5CFB794FEA430148F29013C1F6FF73CB189BB2104646F608011A4601F05BFCFB7903F10103FB71FB79002BE3D09C
:4017C00048F27113C1F6FF731A7848F27413C1F6FF731B781046194601F058FB07F10C07BD4690BD80B586B002AFF871B971BA807B804FF00003FB73FB7BFF2B1DD0F97B0A
:40180000FA79BB794FF0000000904FF000000190084611461A464FF0000301F059FBF97BBA887B88084611461A4601F0EBFAFB7B18464FF0020101F0ADFAFB7B184607F1C8
:401840001007BD4680BD00BF80B400AF46F26653C4F200031B78DBB21846BD4680BC704780B582B002AF48F22013C1F6FF734FF001021A7048F27813C1F6FF734FF00002A8
:401880001A704FF0100001F07FF84FF0100001F0A9F94FF01D004FF0070101F08DFC45F69603C4F200034FF007021A7045F69703C4F200034FF000021A7045F69E03C4F29E
:4018C00000034FF000021A7045F60733C4F2000345F60732C4F200021278D2B242F01802D2B21A7045F69303C4F200034FF000021A7045F68833C4F200034FF000021A7089
:4019000045F68933C4F200034FF000021A704FF4B143C4F200034FF00A021A7045F68103C4F200034FF000021A7045F68303C4F200034FF000021A7045F68803C4F2000360
:401940004FF012021A7045F68903C4F200034FF013021A7045F68D03C4F200034FF000021A7044F60163C4F200034FF014021A704FF0010300934FF0020048F66B514FF453
:4019800000424FF0080300F091FD4FF0020300934FF0000049F2DA014FF400424FF0100300F084FD4FF0030300934FF0000049F2DA014FF400424FF0100300F077FD4FF002
:4019C000040300934FF0000049F2DA014FF400424FF0100300F06AFD44F60E63C4F2000348F22012C1F6FF721278D2B202F1FF3248F27C11C1F6FF714FEA82028A18927849
:401A00001A7044F60C63C4F2000348F22012C1F6FF721278D2B202F1FF3148F27C12C1F6FF7232F821201A8048F22013C1F6FF731B78DBB2184600F099F9BD4680BD00BF6B
:401A400080B582B000AF01F005F90346FB7148F22013C1F6FF731B78BB7144F2AA33C4F2000344F2AA32C4F200021278D2B242F00102D2B21A7044F2AA33C4F2000344F26E
:401A8000AA32C4F200021278D2B242F01002D2B21A7044F2BA33C4F2000344F2BA32C4F200021278D2B242F00102D2B21A7044F2BA33C4F2000344F2BA32C4F200021278EB
:401AC000D2B242F01002D2B21A7044F2F863C4F2000344F2F862C4F200021278D2B242F00202D2B21A7044F2F963C4F2000344F2F962C4F200021278D2B242F00202D2B2D0
:401B00001A7045F69103C4F2000345F69102C4F200021278D2B242F00302D2B21A704FF0030001F005FB44F2F863C4F2000344F2F862C4F200021278D2B222F00202D2B24D
:401B40001A7044F2F963C4F2000344F2F962C4F200021278D2B222F00202D2B21A7045F67703C4F2000345F67702C4F200021278D2B242F00602D2B21A7045F68203C4F26F
:401B800000034FF07A021A7044F2A133C4F2000344F2A132C4F200021278D2B242F00102D2B21A7044F2B133C4F2000344F2B132C4F200021278D2B242F00102D2B21A7013
:401BC00044F2A233C4F2000344F2A232C4F200021278D2B242F00102D2B21A7044F2B233C4F2000344F2B232C4F200021278D2B242F00102D2B21A704EF28023CEF2000371
:401C00004FF000521A604FF46143CEF200034FF000521A60FB79184601F020F807F10807BD4680BD80B500AF48F27A13C1F6FF731B78002B10D148F27B13C1F6FF731B78CB
:401C4000DBB2002B01D1FFF70BFE48F27A13C1F6FF734FF001021A70FFF7F2FE80BD00BF80B400AF4FF49C43C4F200034FF49C42C4F200021278D2B242F00102D2B21A7055
:401C8000BD4680BC704700BF80B485B000AF0346FB7148F27913C1F6FF731B78DBB2002B06D048F27813C1F6FF731B78FB7308E044F60163C4F200031B78DBB203F001034D
:401CC000FB73FB7B012B02D0FB79002BE1D0FB7B184607F11407BD4680BC704780B483B000AF44F61463C4F200031B78DBB203F003037B717B79012B06D844F61063C4F2EF
:401D000000031B88FB801AE044F61063C4F200031B78DBB2FB8044F61163C4F200031B78DBB24FEA03239AB2FB881343FB807B79032B04D144F61263C4F200031B7848F2D5
:401D40007913C1F6FF731B78DBB2002B06D048F27813C1F6FF734FF000021A70FB881BB2184607F10C07BD4680BC704780B582B000AF0346FB7148F27913C1F6FF734FF02C
:401D800000021A70FB79012B40F0E0804FF49C43C4F200034FF038021A7044F60263C4F200034FF004021A7044F60363C4F200034FF006021A7044F60463C4F200034FF09F
:401DC00000021A7044F60563C4F200034FF000021A7044F60663C4F200034FF00F021A7044F60863C4F200034FF000021A7044F60963C4F200034FF000021A7044F60A6301
:401E0000C4F200034FF000021A7044F61463C4F200034FF001021A7045F68403C4F200034FF014021A7045F68503C4F200034FF005021A7045F68603C4F200034FF016026E
:401E40001A7045F68703C4F200034FF000021A7045F68A03C4F200034FF044021A7045F68B03C4F200034FF048021A7045F68C03C4F200034FF001021A7045F68E03C4F299
:401E800000034FF001021A7045F68F03C4F200034FF011021A7045F69003C4F200034FF019021A7045F69103C4F200034FF097021A704FF0520000F0C7FB45F69403C4F2D1
:401EC00000034FF058021A7045F69503C4F200034FF000021A7045F69A03C4F200034FF005021A7045F69B03C4F200034FF002021A7045F69C03C4F200034FF000021A7047
:401F000045F69D03C4F200034FF000021A704FF0000000F023FC48F29413C1F6FF734FF033021A604FF024004FF0010100F02CFC4FF095004FF0010100F054FD4FF01D008E
:401F400042F2F161C0F2000101F006F9FB79022B40F0E0804FF49C43C4F200034FF038021A7044F60263C4F200034FF004021A7044F60363C4F200034FF006021A7044F69E
:401F80000463C4F200034FF000021A7044F60563C4F200034FF000021A7044F60663C4F200034FF03F021A7044F60863C4F200034FF000021A7044F60963C4F200034FF0E3
:401FC00000021A7044F60A63C4F200034FF000021A7044F61463C4F200034FF001021A7045F68403C4F200034FF050021A7045F68503C4F200034FF027021A7045F686032C
:40200000C4F200034FF02C021A7045F68703C4F200034FF000021A7045F68A03C4F200034FF055021A7045F68B03C4F200034FF05A021A7045F68C03C4F200034FF0050296
:402040001A7045F68E03C4F200034FF001021A7045F68F03C4F200034FF011021A7045F69003C4F200034FF019021A7045F69103C4F200034FF097021A704FF0440000F05B
:40208000E3FA45F69403C4F200034FF058021A7045F69503C4F200034FF000021A7045F69A03C4F200034FF005021A7045F69B03C4F200034FF002021A7045F69C03C4F2EE
:4020C00000034FF000021A7045F69D03C4F200034FF000021A704FF0000000F03FFB48F29413C1F6FF734FF47A421A604FF008004FF0010100F048FB4FF025004FF0010167
:4021000000F070FC4FF01D0042F2FD61C0F2000101F022F8FB79032B40F0E0804FF49C43C4F200034FF038021A7044F60263C4F200034FF004021A7044F60363C4F2000307
:402140004FF006021A7044F60463C4F200034FF000021A7044F60563C4F200034FF000021A7044F60663C4F200034FF03F021A7044F60863C4F200034FF000021A7044F67A
:402180000963C4F200034FF000021A7044F60A63C4F200034FF000021A7044F61463C4F200034FF001021A7045F68403C4F200034FF050021A7045F68503C4F200034FF07D
:4021C00027021A7045F68603C4F200034FF02C021A7045F68703C4F200034FF000021A7045F68A03C4F200034FF055021A7045F68B03C4F200034FF05A021A7045F68C035D
:40220000C4F200034FF005021A7045F68E03C4F200034FF001021A7045F68F03C4F200034FF011021A7045F69003C4F200034FF019021A7045F69103C4F200034FF0970297
:402240001A704FF0440000F0FFF945F69403C4F200034FF058021A7045F69503C4F200034FF000021A7045F69A03C4F200034FF005021A7045F69B03C4F200034FF002022E
:402280001A7045F69C03C4F200034FF000021A7045F69D03C4F200034FF000021A704FF0000000F05BFA48F29413C1F6FF734FF47A421A604FF008004FF0010100F064FAFA
:4022C0004FF025004FF0010100F08CFB4FF01D0042F20971C0F2000100F03EFFFB79042B40F0E0804FF49C43C4F200034FF038021A7044F60263C4F200034FF004021A70A0
:4023000044F60363C4F200034FF006021A7044F60463C4F200034FF000021A7044F60563C4F200034FF000021A7044F60663C4F200034FF03F021A7044F60863C4F2000364
:402340004FF000021A7044F60963C4F200034FF000021A7044F60A63C4F200034FF000021A7044F61463C4F200034FF001021A7045F68403C4F200034FF050021A7045F636
:402380008503C4F200034FF027021A7045F68603C4F200034FF02C021A7045F68703C4F200034FF000021A7045F68A03C4F200034FF055021A7045F68B03C4F200034FF0CB
:4023C0005A021A7045F68C03C4F200034FF005021A7045F68E03C4F200034FF001021A7045F68F03C4F200034FF011021A7045F69003C4F200034FF019021A7045F69103B7
:40240000C4F200034FF097021A704FF0440000F01BF945F69403C4F200034FF058021A7045F69503C4F200034FF000021A7045F69A03C4F200034FF005021A7045F69B03BB
:40244000C4F200034FF002021A7045F69C03C4F200034FF000021A7045F69D03C4F200034FF000021A704FF0000000F077F948F29413C1F6FF734FF47A421A604FF00800B0
:402480004FF0010100F080F94FF025004FF0010100F0A8FA4FF01D0042F21571C0F2000100F05AFE07F10807BD4680BD80B586B000AFF871B9807A80BB7197F82030002BF7
:4024C00000F0BA8097F82030042B00F2B580FB7903F1FF33092B63D801A252F823F000BF09250000A1250000A125000009250000A1250000A12500002F2500005525000073
:40250000A12500007B250000BB790F2B07D94FF48C73C4F600131B78DBB2FB7544E04FF48E73C4F600131B78DBB2FB753CE0BB790F2B07D940F21913C4F600131B78DBB2CE
:40254000FB7531E040F21D13C4F600131B78DBB2FB7529E0BB790F2B07D94FF48D73C4F600131B78DBB2FB751EE04FF48F73C4F600131B78DBB2FB7516E0BB790F2B07D940
:4025800040F21B13C4F600131B78DBB2FB750BE040F21F13C4F600131B78DBB2FB7503E04FF00003FB7500BFBA8897F917304FEA4313D3183B617B883A6902FB03F3FB603B
:4025C000FB684FEAD333BB82BB790D2B1AD8BA8ABB796FEA030303F10F0342FA03F3BB8297F8203003F1FF33BA7902F10102D1B248F27C12C1F6FF724FEA8303D3180A46B7
:402600009A700DE097F8203003F1FF3348F27C12C1F6FF724FEA8303D3184FF00F029A7097F8203003F1FF3248F27C13C1F6FF73B98A23F8221003E04FF0000000F048FDCD
:4026400007F11807BD4680BD80B584B000AF0346FB7100F0FFFA0346FB7344F2F863C4F2000344F2F862C4F200021278D2B242F00302D2B21A7044F2F963C4F2000344F230
:40268000F962C4F200021278D2B242F00302D2B21A7045F69203C4F20003FA791A704FF0030000F045FD44F2F863C4F2000344F2F862C4F200021278D2B222F00302D2B27F
:4026C0001A7044F2F963C4F2000344F2F962C4F200021278D2B222F00302D2B21A70FB7B184600F0BBFA07F11007BD4680BD00BF80B400AFBD4680BC704700BF80B400AF87
:40270000BD4680BC704700BF80B400AFBD4680BC704700BF80B400AFBD4680BC704700BF80B582B000AF4FF00003FB7107E0FB791846FEF755FAFB7903F10103FB71FB79A7
:40274000012BF4D948F22113C1F6FF734FF0FF021A7007F10807BD4680BD00BF80B582B000AF0346FB71FFF7DBFFFB791846FEF711FA48F22113C1F6FF73FA791A7007F100
:402780000807BD4680BD00BF80B584B000AF02460B46FA807B7100F015F90346FB7300F0E7F80346BB81FA88BB899A4200F0DC8044F2A233C4F200031B78DBB203F0010322
:4027C000FB72FB7B002B32D1BB89002B02D0FB88002B2CD1BB89002B14D14FF48143C4F20003FA881A8044F28203C4F2000344F28202C4F200021278D2B222F04002D2B2E0
:402800001A70B1E044F28203C4F2000344F28202C4F200021278D2B242F04002D2B21A704FF48143C4F20003FA881A809CE0FB7A002B5CD044F20103C4F200034FF00002AF
:402840001A7044F21003C4F200034FF001021A7044F21403C4F200034FF000021A7044F20803C4F2000344F20802C4F200021278D2B202F07F02D2B21A7044F28203C4F23D
:4028800000031B78DBB203F00803002B02D0FB88002B2CD144F20203C4F20003BA891A8044F20103C4F200034FF007021A7000BF44F20103C4F200031B78DBB203F00103F0
:4028C000002BF5D144F2A233C4F2000344F2A232C4F200021278D2B222F00102D2B21A7044F20103C4F200034FF000021A7044F2A233C4F200031B78DBB203F00103002B6C
:402900001ED044F20203C4F20003FA881A8044F20103C4F200037A79002A02D04FF0030201E04FF001021A7000BF44F20103C4F200031B78DBB203F00103002BF5D113E019
:402940004FF48143C4F20003FA881A8044F2A233C4F2000344F2A232C4F200021278D1B2FA7A0A43D2B21A7007F11007BD4680BD80B400AF4FF48143C4F200031B889BB237
:402980001846BD4680BC704780B483B000AF0346FB7144F28203C4F2000344F28202C4F200021278D2B2D1B2FA7922F00702D2B20A43D2B2D2B21A7007F10C07BD4680BC46
:4029C000704700BF80B400AF44F28203C4F200031B78DBB203F00703DBB21846BD4680BC704700BF80B584B000AF02460B46FA807B7100F015F90346FB7300F0E7F8034669
:402A0000BB81FA88BB899A4200F0DC8044F2A133C4F200031B78DBB203F00103FB72FB7B002B32D1BB89002B02D0FB88002B2CD1BB89002B14D14FF48243C4F20003FA88FE
:402A40001A8044F20213C4F2000344F20212C4F200021278D2B222F04002D2B21A70B1E044F20213C4F2000344F20212C4F200021278D2B242F04002D2B21A704FF4824317
:402A8000C4F20003FA881A809CE0FB7A002B5CD044F20103C4F200034FF000021A7044F21403C4F200034FF001021A7044F21003C4F200034FF000021A7044F20803C4F2A5
:402AC000000344F20802C4F200021278D2B202F07F02D2B21A7044F20213C4F200031B78DBB203F00803002B02D0FB88002B2CD144F20203C4F20003BA891A8044F2010377
:402B0000C4F200034FF007021A7000BF44F20103C4F200031B78DBB203F00103002BF5D144F2A133C4F2000344F2A132C4F200021278D2B222F00102D2B21A7044F2010361
:402B4000C4F200034FF000021A7044F2A133C4F200031B78DBB203F00103002B1ED044F20203C4F20003FA881A8044F20103C4F200037A79002A02D04FF0030201E04FF088
:402B800001021A7000BF44F20103C4F200031B78DBB203F00103002BF5D113E04FF48243C4F20003FA881A8044F2A133C4F2000344F2A132C4F200021278D1B2FA7A0A43AC
:402BC000D2B21A7007F11007BD4680BD80B400AF4FF48243C4F200031B889BB21846BD4680BC704780B483B000AF0346FB7144F20213C4F2000344F20212C4F20002127835
:402C0000D2B2D1B2FA7922F00702D2B20A43D2B2D2B21A7007F10C07BD4680BC704700BF80B400AF44F20213C4F200031B78DBB203F00703DBB21846BD4680BC704700BF38
:402C40000230800800F0058000BF013800467FF4FCAF7047EFF3108072B6704780F31088704700BFAFF3008080B483B000AF48F22513C1F6FF734FF07F021A7048F22413B2
:402C8000C1F6FF734FF080021A704FF07F03FB710FE0FB794FEAC30303F1804303F5F043FA7902F1FF32D2B21A70FB7903F1FF33FB71FB79002BECD1FB794FEAC30303F1C1
:402CC000804303F5F0434FF000021A7007F10C07BD4680BC704700BF80B485B000AF02460B46FA71BB714FF00103FB60FB79172B48D8BB79002B16D0FB794FEA031247F25F
:402D00001003C4F20003D318FA794FEA021147F21002C4F200028A181278D2B242F02002D2B21A7015E0FB794FEA031247F21003C4F20003D318FA794FEA021147F2100257
:402D4000C4F200028A181278D2B222F02002D2B21A70FB794FEA031247F21003C4F20003D318FA794FEA021147F21002C4F200028A181278D2B242F00102D2B21A704FF003
:402D80000003FB60FB68184607F11407BD4680BC704700BF80B485B000AF02460B46FA71BB714FF00103FB60FB79172B22D8FB794FEA031247F21003C4F20003D3181B7851
:402DC000DBB223F00E03FB72FB794FEA031247F21003C4F20003D318BA7902F00702D2B24FEA4202D1B2FA7A0A43D2B21A704FF00003FB60FB68184607F11407BD4680BCD2
:402E0000704700BF80B485B000AF13460246FA710A46BA807B804FF00103FB60BA8841F6FF739A4202D14FF40053BB807A8841F6FF739A4202D14FF400537B80FB79172BC9
:402E40001CD8FB794FEAC30303F1804303F5EC4303F10403BB60BB68BA881A80FB794FEAC30303F1804303F5EC4303F10603BB60BB687A881A804FF00003FB60FB68184672
:402E800007F11407BD4680BC704700BF80B485B000AF02460B46FA71BB714FF00103FB60FB79172B0CD8FB794FEA031247F21003C4F20003D318BA795A724FF00003FB607C
:402EC000FB68184607F11407BD4680BC704700BF80B485B000AFF871B9717A713B714FF00103FB60FB79172B3CD8FB794FEAC30303F1804303F5EC43BA7902F07F02D1B225
:402F00007A794FEAC212D2B20A43D2B21A70FB794FEAC30303F1804303F5EC433A7E4FEA0212D1B23A7902F00F02D2B20A43D2B25A70FB794FEAC30303F1804303F5EC43B3
:402F40003A7F02F00F02D2B29A70FB794FEAC30303F1804303F5EC434FF00002DA704FF00003FB60FB68184607F11407BD4680BC704700BF80B582B000AF4FF0FF03FB7142
:402F8000FFF768FE0346BB7148F22413C1F6FF731B78182B20D948F22513C1F6FF731B78FB7148F22413C1F6FF731B7803F1FF33DAB248F22413C1F6FF731A70FB794FEA8D
:402FC000C30303F1804303F5F0431B78DAB248F22513C1F6FF731A70BB791846FFF73EFEFB79184607F10807BD4680BD80B485B000AFF871B980BA71FB704FF00103FB601A
:40300000FB795BB2002B27DBBB8823F47F6323F00F039BB2002B1FD1FB794FEAC30303F1804303F5F043BB60BB68BA881A80FB794FEAC30303F1804303F5F043BA799A7018
:40304000FB794FEAC30303F1804303F5F043FA78DA704FF00003FB60FB68184607F11407BD4680BC704700BF80B485B000AF13460246FA710A46BA807B804FF00103FB60D2
:40308000FB795BB2002B1CDBFB794FEAC30303F1804303F5F04303F10403BB60BB68BA881A80FB794FEAC30303F1804303F5F04303F10603BB60BB687A881A804FF0000395
:4030C000FB60FB68184607F11407BD4680BC704780B483B000AF0346FB7101BE07F10C07BD4680BC704700BF80B582B000AF78600BE048F23813C1F6FF731B681846FFF703
:403100009FFD7B68A3F500437B607B68B3F5004FEFD848F23013C1F6FF731B687A6802FB03F31846FFF78CFD07F10807BD4680BD80B582B000AF0346FB80FA8848F23413BA
:40314000C1F6FF731B7803FB02F31846FFF778FD07F10807BD4680BD80B584B000AF03463960FB714EF60853CEF200031B68FB60FB791F2B03D94FF00000FFF7A9FFFB79FF
:4031800003F01F0303F110034FEA8303FA68D3181B68BB60FB7903F01F0303F110034FEA8303FA68D3183A681A60BB68184607F11007BD4680BD00BF80B582B000AF0246A4
:4031C0000B46FA71BB71BB79072B03D94FF00000FFF77EFFFB791F2B03D94FF00000FFF777FFFB7903F01F0303F1604303F56443BA794FEA4212D2B21A7007F10807BD4617
:4032000080BD00BF80B582B000AF41F2873000F06BF841F2873000F083F8FFF71BFD0346FB7146F29B43C4F2000346F29B42C4F200021278D2B242F01002D2B21A70FB79B7
:403240001846FFF70BFD00F07BF84FF0010000F02FF807F10807BD4680BD00BF80B400AF46F27843C4F2000346F27842C4F200021278D2B262F07F02D2B21A70BD4680BCCB
:40328000704700BF80B500AF48F28C13C1F6FF731B78002B08D1FFF7B5FF48F28C13C1F6FF734FF001021A70FFF7D8FF80BD00BF80B483B000AF0346FB7146F28B43C4F253
:4032C0000003FA791A7007F10C07BD4680BC704780B400AF46F26B43C4F200031B78DBB21846BD4680BC704780B483B000AF786046F22843C4F200037A681A6007F10C0726
:40330000BD4680BC704700BF80B400AF46F24843C4F200031B681846BD4680BC704700BF80B483B000AF786046F20843C4F200037A681A6007F10C07BD4680BC704700BF9D
:4033400080B500AF01E0FFF7DFFFFFF7C1FF034603F00803002BF6D180BD00BF80B582B000AF43F6FF50C0F2490000F081F843F6FF50C0F2490000F097F8FFF76BFC03461F
:40338000FB7146F29453C4F2000346F29452C4F200021278D2B242F01002D2B21A70FB791846FFF75BFC00F09FF84FF0000000F043F807F10807BD4680BD00BF80B400AF9A
:4033C00046F27453C4F2000346F27452C4F200021278D2B262F07F02D2B21A70BD4680BC704700BF80B500AF48F28D13C1F6FF731B78002B08D1FFF7B1FF48F28D13C1F606
:40340000FF734FF001021A70FFF7D8FF80BD00BF80B400AF46F27453C4F2000346F27452C4F200021278D2B202F07F02D2B21A70BD4680BC704700BF80B483B000AF034691
:40344000FB7146F28453C4F20003FA791A7007F10C07BD4680BC704780B400AF46F26453C4F200031B78DBB21846BD4680BC704780B483B000AF786046F22453C4F20003C5
:403480007A681A6007F10C07BD4680BC704700BF80B400AF46F24453C4F200031B681846BD4680BC704700BF80B483B000AF786046F20453C4F200037A681A6007F10C0752
:4034C000BD4680BC704700BF80B400AF46F20453C4F200031B7846F24453C4F200031B681846BD4680BC704780B500AF01E0FFF7CFFFFFF7B1FF034603F00803002BF6D192
:4035000080BD00BF80B500AF00F056F840F23130C0F2000000F01CF84FF0070000F02CF800F03EF880BD00BF80B582B000AF786000F042F8786800F00BF84FF0070000F087
:403540001BF800F02DF807F10807BD4680BD00BF80B485B000AF78604EF60853CEF200031B68FB60FB6803F140037A681A6007F11407BD4680BC704780B483B000AF03468F
:40358000FB714FF46443CEF20003FA794FEA4212D2B21A7007F10C07BD4680BC704700BF80B400AF4FF46143CEF200034FF001021A60BD4680BC704780B400AF4EF280132F
:4035C000CEF200034FF001021A60BD4680BC704780B400AF4EF28023CEF200034FF001021A60BD4680BC704780B500AF00F056F840F21930C0F2000000F01CF84FF0070082
:4036000000F02CF800F03EF880BD00BF80B582B000AF786000F042F8786800F00BF84FF0070000F01BF800F02DF807F10807BD4680BD00BF80B485B000AF78604EF6085376
:40364000CEF200031B68FB60FB6803F144037A681A6007F11407BD4680BC704780B483B000AF0346FB714EF20143CEF20003FA794FEA4212D2B21A7007F10C07BD4680BC3C
:40368000704700BF80B400AF4FF46143CEF200034FF002021A60BD4680BC704780B400AF4EF28013CEF200034FF002021A60BD4680BC704780B400AF4EF28023CEF200039F
:4036C0004FF002021A60BD4680BC704780F0004002E000BF81F0004142001FBF5FEA410392EA030F7FEA226C7FEA236C6AD04FEA1262D2EB1363C1BFD218414048404140DC
:40370000B8BF5B42192B88BF704710F0004F40F4000020F07F4018BF404211F0004F41F4000121F07F4118BF494292EA030F3FD0A2F1010241FA03FC10EB0C00C3F1200384
:4037400001FA03F100F0004302D5494260EB4000B0F5000F13D3B0F1807F06D340084FEA310102F10102FE2A51D2B1F1004F40EBC25008BF20F0010040EA03007047490000
:4037800040EB000010F4000FA2F10102EDD1B0FA80FCACF1080CB2EB0C0200FA0CF0AABF00EBC25052421843BCBFD0401843704792F0000F81F4000106BF80F4000001329A
:4037C000013BB5E74FEA41037FEA226C18BF7FEA236C21D092EA030F04D092F0000F08BF0846704790EA010F1CBF0020704712F07F4F04D1400028BF40F00040704712F1CC
:4038000000723CBF00F50000704700F0004343F0FE4040F4000070477FEA226216BF08467FEA23630146420206BF5FEA412390EA010F40F4800070474FF0000304E000BF0A
:4038400010F0004348BF40425FEA000C08BF704743F0964301464FF000001CE050EA010208BF70474FF000030AE000BF50EA010208BF704711F0004302D5404261EB41018F
:403880005FEA010C02BF84460146002043F0B64308BFA3F18053A3F50003BCFA8CF2083AA3EBC25310DB01FA02FC634400FA02FCC2F12002BCF1004F20FA02F243EB020020
:4038C00008BF20F00100704702F1200201FA02FCC2F1200250EA4C0021FA02F243EB020008BF20EADC7070474FF0FF0C1CEAD0521EBF1CEAD15392EA0C0F93EA0C0F6FD0D6
:403900001A4480EA010C400218BF5FEA41211ED04FF0006343EA501043EA5111A0FB01310CF00040B1F5000F3EBF490041EAD3715B0040EA010062F17F02FD2A1DD8B3F1B5
:40394000004F40EBC25008BF20F00100704790F0000F0CF0004C08BF49024CEA502040EA51207F3AC2BFD2F1FF0340EAC250704740F400004FF00003013A5DDC12F1190FFB
:40398000DCBF00F000407047C2F10002410021FA02F1C2F1200200FA02FC5FEA310040F1000053EA4C0308BF20EADC70704792F0000F00F0004C02BF400010F4000F013A8D
:4039C000F9D040EA0C0093F0000F01F0004C02BF490011F4000F013BF9D041EA0C018FE70CEAD15392EA0C0F18BF93EA0C0F0AD030F0004C18BF31F0004CD8D180EA01006A
:403A000000F00040704790F0000F17BF90F0004F084691F0000F91F0004F14D092EA0C0F01D142020FD193EA0C0F03D14B0218BF084608D180EA010000F0004040F0FE408C
:403A400040F40000704740F0FE4040F4400070474FF0FF0C1CEAD0521EBF1CEAD15392EA0C0F93EA0C0F69D0A2EB030280EA010C49024FEA402037D04FF0805343EA11118C
:403A800043EA10130CF000408B4238BF5B0042F17D024FF4000C8B4224BF5B1A40EA0C00B3EB510F24BFA3EB510340EA5C00B3EB910F24BFA3EB910340EA9C00B3EBD10F2F
:403AC00024BFA3EBD10340EADC001B0118BF5FEA1C1CE0D1FD2A3FF650AF8B4240EBC25008BF20F0010070470CF0004C4CEA50207F32C2BFD2F1FF0340EAC250704740F456
:403B000000004FF00003013A37E792F0000F00F0004C02BF400010F4000F013AF9D040EA0C0093F0000F01F0004C02BF490011F4000F013BF9D041EA0C0195E70CEAD1530F
:403B400092EA0C0F08D142027FF47DAF93EA0C0F7FF470AF084676E793EA0C0F04D14B023FF44CAF08466EE730F0004C18BF31F0004CCAD130F000427FF45CAF31F0004303
:403B80007FF43CAF5FE700BF42000ED2B2F1FE4F0BD34FF09E03B3EB126209D44FEA002343F0004323FA02F070474FF00000704712F1610F01D1420202D14FF0FF307047D4
:403BC0004FF00000704700BF38B50E4D0E4B0024E81A8510AC4205D00B4951F8242090470134F7E700F0DAF80849094A541AA5100024AC4205D0054B53F8240080470134FB
:403C0000F7E738BDA83D0000A83D0000A83D0000B03D000010B50023934203D0CC5CC4540133F9E710BD82180346934202D003F8011BFAE77047000000000000035B00408D
:403C40002443004040000000BC020000B4020000AC020000A40200009C0200009C0200009C0200009C0200006881FF1F6881FF1F6881FF1F6881FF1F6881FF1F6881FF1FF3
:403C80006881FF1F6881FF1F6881FF1F6881FF1F6881FF1F6881FF1F6881FF1F6881FF1F080000481000004820070048400700481800004820000048A0000048200100480D
:403CC000A001004820020048A002004820030048A003004820040048A004004820050048A005004820060048A00600486007004870070048800700480008004880080048C6
:403D00000009004880090048000A0048800A0048000B0048800B0048000C0048800C0048000D0048800D0048000E0048800E0048000F0048800F004800100048801000483B
:403D4000001100488011004800120048801200480013004880130048001400488014004800150048801500480016004880160048001700488017004800180048801800487B
:403D800030313233343536373839414243444546466400401664004096640040F8B500BFF8BC08BC9E467047E90200000D060000F8B500BFF8BC08BC9E467047C5020000C0
:403DC000D03D00000881FF1F380000006000000000000000FFFFFFFF94110429AC0D581B3A009411AC0D000001FF0000807F00000100000000366E01C05D0000180000000B
:403E00000000E02E00000000000000000000000000000000000000000000000000000000000000000000000000000000000000000000000000000000000000000000000074
:403E40000000000000000000000000000000000000000000000000000000000000000000000000000000000000000000000000000000000000000000000000000000000042
:403E80000000000000000000000000000000000000000000000000000000000000000000000000000000000000000000000000000000000000000000000000000000000002
:403EC00000000000000000000000000000000000000000000000000000000000000000000000000000000000000000000000000000000000000000000000000000000000C2
:403F00000000000000000000000000000000000000000000000000000000000000000000000000000000000000000000000000000000000000000000000000000000000081
:020000040003F7
:0200000480007A
:400000000200000000000000004000008000000001010000000000000F000000000000000300000000000000000000010000000000000300000003000000020000000000E1
:4000400000000000000000000000000000000100030000000001000000000000000000000000000000000000000000000000000000000000000000000E0400003400000134
:4000800000000000000000000000000000000000000000000000000000000000000000000000011000010000000002010002000800000002000203040000031000000020E3
:4000C0000030000000000002000000300300000C0030030E000100008000000000004000360200000000200618FFFFFFEA04000408000100010000000E0E0E044434000177
:40010000404080006040A000105090502000A0080000000000000000000000000000000000010000000100000001000000010000000000060000000100000018000A001436
:4001400000000000000000000000000000000000000100020010000C0008000000000000520300000000000000FFFFFF00000000000000000000022C000E0E0E4044000129
:4001800040A8402040A840204020108040A840A800000000000000000000000000000000FF0000001D00620E0000000000000009000F00106B00940000013002000D0010EC
:4001C00000000000220044000002010594004800001FE0001F0000000000000200000000420300000009090005FFFFFF0F0F0F0000000000000000000E0E0E00440400019C
:4002000040A8402040A840204020108040A840A800000000000000000000000000000000020000000000010600000301000000000006000000000001000000040002000054
:400240000000000000000000000000060000020002000106000000010000000000000040060000660000000000FFFFFF0020000000002300010004000E0E040444330001DF
:400280004040406C00000000000000000000000000000000000000000000000000000000000000000000000200000003000000000000000300000000000001000000000108
:4002C0000103000001000000000000000000000000030000000001008000000000000000060000660001000213FFFFFF0F2F0F000000000000000000040D0400430300014D
:400300004040406C00000000000000000000000000000000000000000000000000000000000000000000000000000000000000000000000000000000000000000000000091
:400340000000000000000000000000000000000000000000000000000000000000000000450000000000000000FFFFFF000000011800800000000000000004040055000144
:4003800040004000404080008000800080008000000000000000000000000000000000000000000000000000000000000000000000000000000000000200000000000100BA
:4003C0000000000000000000000000000000010000000200000001000000000000000400510000000000000000FFFFFF0083030118000000000000000400040005050001F5
:40040000400040004040800080008000800080000000000000000000000000000000000000000000000000000000000000000000000000000000000000000000000000003C
:400440000000000000000000000000000000000000000000000000000000000000000000510000000000000000FFFFFF008303011800000000000000000004000005000185
:4004800040004000404080008000800080008000000000000000000000000000000000000000010000000000000000000000000000000100000000000000000000000000BA
:4004C00000000000000000000000000000000000010000000000000000000000000001004500000000EC020007FFFFFF0083030118000000010000000400040400550001C1
:40050000400040004040800080008000800080000000000000000000000000000000000000000000000000000000000000000000040028000F0000000100080002002800CD
:400540000000000000000000000000000000170020000800070010000000080000000100250000000000000000FFFFFF000000011800800001000000040004040111000141
:4005800040004000404080008000800080008000000000000000000000000000000000000000000000000000000000000000000000000000000000000000000000000000BB
:4005C0000000000000000000000000000000000000000000000000000000000000000000650000000000000000FFFFFF0083030118000000000000000000040000010001F4
:400600004000400040408000800080008000800000000000000000000000000000000000000001000000000000000000000003000000000000000202000000010C00000025
:4006400002020100000008000000140000000000000003000C0318000000000000000000640000000000000000FFFFFF008303011800000001000000040404049321000169
:4006800040004000404080008000800080008000000000000000000000000000000000000000000000000000000000000000000000000000000000000000000000000000BA
:4006C00000000000000000000000000000000000000000000000000000000000000000002500000000EC002023FFFFFF008303011800000000000000000004000001000104
:4007000040004000404080008000800080008000000000000000000000000000000000000000000000000000000000000000000000000000000001000000000D000000002B
:4007400000000000000000000000000000000000000000000D00000000000000000000000E0100000000000000000E010000000038000000000000001800180020000000C6
:400780000000000000000000000000000000000000000000000000000000000000000000000000000000000000000000000000000000000000080000000000000000000031
:4007C00000000000000000000000000000000000000000000000000000000000000000000000000000000000000000000800000000000000000000000000000000000000F1
:4008000000000000000000000000000000000002000000000000000000000000000000000000000000000000000000000000000000000000000000000000000000000000B6
:400840000000000000000000000000000000000000000000000000000000000000000000000200000000000000000000000000000000000000000000000000000000000076
:40088000000000000000000000000000000000000000000000000000000000000000000000020000000800010000000000000001000000000002000000000000000000002A
:4008C00000000100000000000000000000000000000000000000000002000000000000000000000000000000000000000800000000000000000000000000000000000000ED
:4009000000000000000000000000000000000000000000000000000000000000000000000000000000080000000000000000000000000000000000000000000000000000AF
:400940000000000000000000000000000000000000000000000000000000000000000000000000000000000000000000000000000000000000000000000000000000000077
:400980000000000000000000000000000000000000000000000000000000000000000000000000000000000000000000000000000000000000000000000000000000000037
:4009C00000000000000800000000000000000000000000000000000000000000000000000000000000000000000000000000000000000000000000000000000000000000EF
:400A000000000000000000000000000000000000000000000000000000000000000000000000000000000000000000000000000000000000000000000000000000000000B6
:400A40000000000000000000000000000000000001000000000000000000000000000000000000000000000000000000000000000000000000000000000000000000000075
:400A8000000000000000000000000000000000000000000000000000000000000000000000000000000000000000000000000000000000080000000000000000000000002E
:400AC00000000000000000000000000000000000000000000000000000000000000000000000000000000000040000000000000000000000000000000000000000000000F2
:400B000000000000000000000000000000000000000000000000000000000000000000000000000000000000000000000000000000000000000000000000000000000000B5
:400B4000000000000000000000000000000000000000000000000000000000000000000000000000000000000000000000000000000000000000000000000000000000086D
:400B80000000000000000000000000000000000000000000000000000000000000000000000000000000000000000000000000000000000000000000000000000000000035
:400BC00000000000000000000000000000000000000000000000000000000000000001000000000000000000000000000000000000000000000000000000000000000000F4
:400C000000000000000000000000000000000000000000000000000000000000000000000000000000000000000000000000000000000000000000000000000000000000B4
:400C40000000000000000000000000000000000000000000000000000000000000000000000000000000000000000000100000000000000000000000000000000000000064
:400C8000000000000000000000021900000000000000004000000000040059100000000000000000000000000000000000000000000000000000000000000000000000006C
:400CC0000400000000000000020000000200002000000000000000000005400000000000000000000000000000000000000000000000004000000000000000000000000047
:400D00000000000000000000000000000000000400000000040008000005000000000004020200000000000000000000840000000000000000000000000000000000000012
:400D400000000F000100000000000000000000000400380000000B0000000000000000000000000010000000000000001000000000000000000000000000000000000000FC
:400D8000000000000000000000000000000000000000000000000000000000000000000000000000000000000000000400000004000000000100000000000000000000002A
:400DC00000000000000000000000000000000000000000000000000000000000000000000000000000000000000000000000080000000000000000000000000000000000EB
:400E0000000000000200020000000000000012000000000080000028000000000800124000000000000000080000000000000040000000000000002800000000000000002A
:400E400004000000000200000205000000000400020200000000000000000000800000000000000000000000000000000000000000000000000000000000000000000000DD
:400E80000000000000000000000000000000000002000000000000000000022000000004000000000000000000000008000001000000000000000000000000000000000001
:400EC0009000A0007000000000008000600000008400280000001000000000000000000000000000000000000000000000000C0000000000000000000000000000000000AA
:400F00000000000000000000008000080000000002000000000000000100000400000000000000000000000000000000000000000000000000000000000000000000000022
:400F400000800000000040000200000000000080000000000000000000000000000000000000000000000000000000000000000000000000020040000000000000000000ED
:400F8000000000000000000000000000000000000000000000000000000000000000400000800040020000000000000000000000000000000000000000000000000000002F
:400FC000000003000100000000000000000000008800180000000000000000000000000000000000000000000000000000000000000000000000000000000000000000004D
:4010000000000000140100009080000000000000A000000000000040000002000001000800020000008000100001000000100000000200400001005814100000042000001A
:401040000000000000000000A000080000000800000008000000000000000000800000000000000010000A20000000000120000000000000000008001000000000000010B5
:401080000000000000000000000000000000000014000000000000200000006800010804000000000000000000000000000000000000000000000000000000000000000087
:4010C000700002008C00000000002100F90066000000240000001000800000000000440000000000000000000000000000000000000000000000000000000000000000007A
:40110000000000000000400000000000000000800000000000000000000000000000800000000000000000000000000000000000000000000000000000000000000000006F
:4011400000800000000040000200000000050080000000000080004000000000000580000000000000000000000000000000000000000000000000000000000000000000E3
:40118000000000000000000000000000000000000000000000000000000000000000000000000000000000000000000000000000000000000000000000000000000000002F
:4011C00010001000000000000000000000000000880018000000D000000000000000000000000000000000000000000000000000000000000000000000000000000000005F
:401200000000000004010000000000000008000800000000100008400000000014280008000061100001014000000000000000082000410410012040005500000400008093
:401240001400000000290000000001000000000800000000000000400000000000000000000002000000000008550000000000000000000000000000080000000800001069
:4012800000000000000000000000000000000000000000000040003000000028000100402000020008280008000000000000000000000000000000000000000000000000FB
:4012C00030006000E000000000002000BF005F00E600080000000000010000000000420000000000000000000000000000000000000000000000000000000000000000000F
:4013000000000000000000000000000000000000000000000000000000000000000000000000000000000000000000000000000000000000000000000000000000000000AD
:40134000000000000000000000000000000000000000000000000000000000000000000000000000000000002000000000000000000000000000000000000000000000004D
:401380001000004000010000002800000028800000000100000000401008020000008000240102000000000800890108000000000820004100000000044200202000000081
:4013C0000404000000000000000000100000000020040000000000000080000000000000000000000000000000000001000000000000000000000000080000000800001010
:4014000000000000108000000000000000000000000000000000020000000020000000000000000000000000000000000000002000000100000000000000000000000000D9
:401440001A0076008100000000000F000F002F00060004000000080000000000000042000000000000000000000000000000000000000000000000000000000000000000BA
:40148000000000000000002000000000000000000000000000000000000000000000000000000000000000000000000000000000000000000000000000000000000000000C
:4014C000000000000000000000000000000000000000000000000000000000000000800000000000000000000000000000000000000000000000000000000000000000006C
:40150000000000000000000000000000000000200000000000000000000000000000000000004000000000000000000000000000000000000010000000000000000000003B
:40154000200000000000000000000000000000000000000000002000000000000000000000000000000000000000000000000000000000000000000000000000000000002B
:40158000000000000000000000000000000000000000000000000000000000000000000000000000001000000000000000000000000000000000000000000000000000001B
:4015C00000000000000000000000000000000000000000000000000000000000000000000000000000000000000000000000000000000000000000000000000000000000EB
:40160000000000000000000000000000000000000000000000000000000000000000000000004000000000000000009000005000000000000000000000000000000000008A
:4016400000000000000000002000000000000000000000000000000000000000000000000000000000000000000000000000F000000000000000000000000000000000005A
:40168000000000000000000000000000000000000000000000000000000000000000000000000000000010900000000000000000000000000000000000000000000000008A
:4016C00000000000000000000000000000000000000000000000000000000000000000000000000000000000000000000000000000000000000000000000000000000000EA
:401700000000000000000000000000000000000000000000000000000000000000000000000000000000109000000000000000000000000000000000000000000000000009
:401740000000000000000000000000000000000000000000000000000000000000000000000000000000000000000000000000000000000000000000000000000000000069
:401780000000000000000000000000000000000000000000000000000000000000000000000000000000109000000000000000040000000000000000000000000000000085
:4017C00000000000000000000000000000000000000000000000000000000000000000000000000000000000400000000000000000000000000000000000000000000000A9
:4018000000000000000000000000000000000000000000040000000000000000000000000000000000000000000000000000000000000080000010000000000000000020F4
:401840000000000000000000000000000000000000000000000000000000000000000000000000000000000000000000000000000000000000000000000000000000000068
:401880000000000000000000000000000000000000000000000000000000000000000000000000000000000000000000000000000000000000000000000000000000000028
:4018C0000000000010000000000000003000200000000000000000000000000000000000000000000000000000000000000000000000000000000000000000000000000088
:4019000000000000000001008040400040000000007F7F000000000002000003010001000000000095001801000000000000000000000000000000000000000000000000B3
:401940000000000000000000000000000000000000000000000000000000000000000000000000000000000000000000000000000000000000000000000000000000000067
:401980000000000000000000000000000000000000000000000000000000000000000000000000000000000000000000000000000000000000000000000000000000000027
:4019C00000000000000000000000000000000000000000000000000000000000000000000000000000000000000000000000000000000000000000000000000000000000E7
:401A000000000000000000000000000000000000000000000000000000000000000000000000000000000000000000000000000000000000000000000000000000000000A6
:0200000490006A
:0400000000004005B7
:0200000490105A
:04000000BC90ACAF55
:0200000490303A
:02000000DDB66B
:0200000490402A
:4000000000000000000000000000000000000000000000000000000000000000000000000000000000000000000000000000000000000000000000000000000000000000C0
:400040000000000000000000000000000000000000000000000000000000000000000000000000000000000000000000000000000000000000000000000000000000000080
:400080000000000000000000000000000000000000000000000000000000000000000000000000000000000000000000000000000000000000000000000000000000000040
:4000C0000000000000000000000000000000000000000000000000000000000000000000000000000000000000000000000000000000000000000000000000000000000000
:0200000490501A
:0C00000000012E12306900012E2D0E1F91
:00000001FF